:020000040800F2
:1000000070460024F90300086B170008C3160008A7
:1000100069170008630500083D1A00080000000089
:10002000000000000000000000000000390300088C
:100030006505000800000000950300088917000806
:100040001304000813040008130400081304000834
:100050001304000813040008130400081304000824
:100060001304000813040008130400081304000814
:100070001304000813040008130400081304000804
:1000800013040008130400081304000813040008F4
:1000900013040008130400081304000813040008E4
:1000A00013040008130400081304000813040008D4
:1000B00013040008130400081304000813040008C4
:1000C00013040008130400081304000813040008B4
:1000D00013040008130400081304000813040008A4
:1000E00013040008130400080000000013040008B3
:1000F0001304000813040008130400081304000884
:100100001304000813040008130400081304000873
:1001100013040008130400086D19000813040008F4
:100120001304000813040008130400081304000853
:100130001304000813040008130400081304000843
:1001400000000000000000000000000000000000AF
:100150001304000813040008130400081304000823
:100160001304000813040008130400081304000813
:100170001304000813040008130400080000000022
:1001800013040008130400081304000813040008F3
:1001900013040008130400081304000813040008E3
:1001A00013040008130400081304000813040008D3
:1001B00013040008130400081304000813040008C3
:1001C00013040008130400081304000813040008B3
:1001D00013040008130400081304000813040008A3
:1001E0001304000813040008130400081304000893
:1001F0001304000813040008130400081304000883
:100200001304000813040008130400081304000872
:100210001304000813040008130400081304000862
:100220001304000813040008130400080000000071
:100230001304000813040008000000001304000861
:100240001304000813040008130400081304000832
:100250001304000813040008130400081304000822
:100260001304000813040008130400081304000812
:100270001304000813040008130400080000000021
:100280001304000813040008130400080000000011
:10029000000000001304000800F002F800F03CF831
:1002A0000AA090E8000C82448344AAF10107DA45D1
:1002B00001D100F031F8AFF2090EBAE80F0013F0E7
:1002C000010F18BFFB1A43F0010318470023000079
:1002D00020230000103A24BF78C878C1FAD852070A
:1002E00024BF30C830C144BF04680C6070470000B0
:1002F0000023002400250026103A28BF78C1FBD82F
:10030000520728BF30C148BF0B6070471FB502F0CD
:100310003BF91FBD10B510BD00F0EAF81146FFF71C
:10032000F5FF01F09DFB00F008F903B4FFF7F2FFC1
:1003300003BC00F00FF900002C4B19680868B0E806
:10034000F04F80F30988BFF36F8F4FF0000080F308
:10035000118870470000000008480068006880F3BA
:1003600008884FF0000080F3148862B661B6BFF3CE
:100370004F8FBFF36F8F00DF00BF00BF08ED00E0BD
:10038000DFF80C00016841F470010160704700BFA4
:1003900088ED00E0EFF30980BFF36F8F134B1A680D
:1003A0001EF0100F08BF20ED108A20E9F04F1060FA
:1003B00009B44FF0500080F31188BFF34F8FBFF3A3
:1003C0006F8F01F019FF4FF0000080F3118809BC16
:1003D00019680868B0E8F04F1EF0100F08BFB0ECC5
:1003E000108A80F30988BFF36F8F704718000024CC
:1003F000EFF305807047000009488047094800472F
:10040000FEE7FEE7FEE7FEE7FEE7FEE7FEE7FEE7C4
:10041000FEE7FEE704480549054A064B7047000021
:1004200091180008990200087040002470460024CA
:10043000704200247042002410B5203AC0F00B80B6
:10044000B1E81850203AA0E81850B1E81850A0E8D8
:100450001850BFF4F5AF5FEA027C24BFB1E8185032
:10046000A0E8185044BF18C918C0BDE810405FEAA2
:10047000827C24BF51F8043B40F8043B08BF70471E
:10048000D20728BF31F8023B48BF11F8012B28BF23
:1004900020F8023B48BF00F8012B70474FF00002E4
:1004A00000B5134694469646203922BFA0E80C506A
:1004B000A0E80C50B1F12001BFF4F7AF090728BF45
:1004C000A0E80C5048BF0CC05DF804EB890028BFC1
:1004D00040F8042B08BF704748BF20F8022B11F0EA
:1004E000804F18BF00F8012B704770477047704766
:1004F000754600F02BF8AE4605006946534620F0DD
:100500000700854618B020B5FFF784FFBDE82040FE
:100510004FF000064FF000074FF000084FF0000BBF
:1005200021F00701AC46ACE8C009ACE8C009ACE872
:10053000C009ACE8C0098D46704710B50446AFF35A
:1005400000802046BDE81040FFF7EFBE004870472E
:100550001040002401491820ABBEFEE7260002002F
:100560007047FEE7704700002DE9F84F03247D4DEA
:1005700000234FF001094FF0B04B4FF00F0AE9E0B4
:1005800009FA03F73A4076D00E7906F00306012EF9
:1005900001D0022E18D1D0F808C04FEA430ECE6821
:1005A00004FA0EF82CEA080C06FA0EF646EA0C06D7
:1005B0008660D0F804C00E792CEA070CC6F300164A
:1005C0009E4046EA0C0646600E79F643B6070BD00D
:1005D000C6684FEA43088F6804FA08FC26EA0C064E
:1005E00007FA08F73743C7600E7906F00306022EB4
:1005F00012D1DE080F694FEA437C00EB8606B6464F
:10060000366A4FEADC6C0AFA0CF807FA0CF726EAAD
:1006100008063743CEF820700F7906684FEA430882
:1006200007F0030704FA08FC07FA08F726EA0C06A5
:10063000374307604E6816F4403F1CD04A4E376877
:1006400047F00207376036689F0706F002060096FB
:1006500023F0030606F1B046B6463F0FD6F808640D
:10066000DFF808810AFA07FC404526EA0C0603D1A8
:100670004FF0000C41E06CE0DFF8F4C0604502D1BF
:100680004FF0010C39E0DFF8ECC0604502D14FF0CB
:10069000020C32E0DFF8E0C0604502D14FF0030CFD
:1006A0002BE0DFF8D8C0604502D14FF0040C24E005
:1006B000DFF8CCC0604502D14FF0050C1DE0DFF83B
:1006C000C4C0604502D14FF0060C16E0DFF8B8C098
:1006D000604502D14FF0070C0FE0DFF8B0C0604575
:1006E00002D14FF0080C08E0DFF8A4C0604502D149
:1006F0004FF0090C01E04FF00A0C0CFA07FC4CEA31
:10070000060CCEF808C44F68DBF80060FF0226EA4A
:10071000020600D516435F46CBF80060D1F804C04E
:10072000DBF804605FEA8C2C26EA020600D516434B
:100730007E606E684F6826EA0206BF0300D5164346
:100740006E602E684F6826EA0206FF0300D5164346
:100750002E605B1C0A6832FA03F67FF411AFBDE825
:10076000F88F000080000058F4440258000002583E
:100770000004025800080258000C025800100258E9
:100780000014025800180258001C02580020025899
:1007900000240258426921EA02030A4043EA024166
:1007A000816170470AB1816170470904FBE700006D
:1007B00001480068000C70470010005C0148806828
:1007C0007047000004000024024881680278114448
:1007D0008160704704000024032010B500F0FEF88B
:1007E00000F0C8FA0F4A104914681368C4F30322D2
:1007F00003F00F038A5CC95C02F01F0201F01F01C5
:10080000D0400A4A20FA01F11160094908600F201E
:1008100000F010F808B1012010BD00F09FF8002092
:1008200010BD000018440258B02500081400002430
:100830001000002410B5102804468AB02CD20022E3
:100840000146362000F0AAF8362000F099F8174843
:1008500004601748016841F010010160006809A9AF
:1008600000F010000890684600F022FA0598B0B138
:1008700000F06EFA40000F4900220F4CB0FBF1F17E
:100880000E4840F2E7330460C0E90332491EC0E974
:10089000011200F0CFFD28B101200AB010BD00F018
:1008A00057FAE8E7054800F0F7FDF6E708000024EE
:1008B000E844025840420F0000100040D4020024D7
:1008C000F0B5154C4378211D0A1D23600378F3B160
:1008D00043680B60057BC67A817A437B2D07847B56
:1008E00045EA0665C77B90F809C0067A90F800E0F3
:1008F00045EAC14040EA834040EA444040EA0740BC
:1009000040EA0C2040EA460040EA0E0001E00020E8
:1009100008601060F0BD000098ED00E0BFF35F8F4D
:10092000044800210368034A23F4803303607032D3
:100930001160704724ED00E0074A40F001000649CD
:1009400070321060086840F480300860BFF34F8F49
:10095000BFF36F8F7047000024ED00E0074882B0BE
:10096000016841F002010160006800220F2100F0DF
:1009700002000090901E02B000F010B8F44402583B
:10098000002809DB410900F01F028900012001F164
:10099000E0219040C1F80001704700000E4BF0B418
:1009A0001B680D46C3F30223C3F10706042E00D9CA
:1009B0000426191D072901D2002300E0DB1E0124B3
:1009C00004FA06F19C40491E2940641E99401440D7
:1009D0002143F0BC01F033B80CED00E0064900F013
:1009E000070210B54FF6FF040868044B204040EAA8
:1009F00002201843086010BD0CED00E00000FA056D
:100A0000134970B50A68D243520705D5096801F049
:100A10000701814213D118E00A6822F0070202435D
:100A20000A60FFF7CBFE0A4D4FF47A760446083D84
:100A300007E000BFFFF7C2FE001BB04201D9012052
:100A400070BD2868C0438004F4D4002070BD00004D
:100A50000C4802582DE9F05F04000F467ED0DFF805
:100A60003882D8F8000000F00F00B8420CD2D8F855
:100A7000001021F00F013943C8F80010D8F8000029
:100A800000F00F00B84269D12078844D40070AD5A4
:100A90002069296801F07001884204D9296821F091
:100AA00070010143296020787C4E361D00070AD56D
:100AB0006069316801F07001884204D9316821F021
:100AC0007001014331602078C0060AD5A069316801
:100AD00001F4E061884204D9316821F4E061014306
:100AE00031602078DFF8B4B180060BF1080B0CD52B
:100AF000E1695846DBF8002002F07002914204D907
:100B0000026822F070020A430260207880070AD54A
:100B1000E068296801F00F01884204D9296821F0B2
:100B20000F01014329602078C0073ED05B49A268CD
:100B30002868183920F47060104328606068022823
:100B400018D0032819D00968012819D049070029AD
:100B50004ADADFF848A1AAF1080A00E044E0DAF82E
:100B6000002022F007020243CAF80020FFF726FE09
:100B7000814612E009688903E9E709688901E6E727
:100B8000C905E4E7FFF71AFEA0EB090141F288303E
:100B9000814202D90320BDE8F09F6168DAF80000C5
:100BA00000F03800B0EBC10FECD1207880070AD5F7
:100BB000E068296801F00F01884204D2296821F019
:100BC0000F0101432960D8F80010404601F00F01E1
:100BD000B9420BD9016821F00F0139430160006867
:100BE00000F00F00B84201D00120D4E72078400780
:100BF0000AD52069296801F07001884204D2296869
:100C000021F0700101432960207800070AD560694E
:100C1000316801F07001884204D2316821F070011E
:100C2000014331602078C0060AD5A069316801F41B
:100C3000E061884204D2316821F4E061014331600F
:100C4000207880060CD5E1695846DBF8002002F0D8
:100C50007002914204D2026822F070020A430260DC
:100C600000F088F80E492A682B68C2F3032203F0CB
:100C70000F038A5CC95C02F01F0201F01F01D04023
:100C8000084A20FA01F11160074908600748006826
:100C9000BDE8F05FFFF7CEBD0020005218440258B7
:100CA000B0250008140000241000002408000024CF
:100CB00070B5144C3F220260124A24680832131D9A
:100CC000114D04F00704446016681C1D06F470669C
:100CD0008660166806F00F06C660126802F07002A1
:100CE00002611A6802F0700242611A6802F4E0625E
:100CF0008261226802F07002C261286800F00F0071
:100D0000086070BD104402580020005230B500F059
:100D100031F80B4A0B490C4B15681468C5F30322D4
:100D200004F00F048A5C095D02F01F0201F01F014C
:100D3000D040064A20FA01F119601060084630BD23
:100D400018440258B02500081400002410000024A4
:100D500000B5FFF7DBFF05490968054AC1F3021139
:100D6000515C01F01F01C84000BD00001C44025846
:100D7000B0250008454970B545480968434B103B0C
:100D800011F0380208D00111082A03D0102A0BD024
:100D9000182A0BD0084670BD19688906FBD519685A
:100DA000C1F3C101C84070BD3A4870BD3749374DE5
:100DB00018310C1D24350A68096826682D6802F070
:100DC000030406F00102C1F30511C5F3CC0515FBC0
:100DD00002F200EE102AB8EE400AE9B32F4ADFED26
:100DE0002E0AB7EE001A6CB1DFED2D1A012C01D0DE
:100DF000022C43D002EE101A1068F8EE422A81EE5F
:100E0000A22A1EE01C68A40611D51B6801EE901AE8
:100E10001168C3F3C103F8EE612AD84001EE900ACD
:100E2000C1F30800F8EE611A81EEA22A0BE001EE90
:100E3000901ADFED1C2A00BFF8EE611A106882EEEE
:100E4000A12AC0F3080001EE900AF8EE611A40EE04
:100E5000201A31EE810A00E015E022EE000A106847
:100E6000C0F34620401C00EE900AF8EE600A80EEC7
:100E7000201ABCEEC10A10EE100A70BD01EE901AE5
:100E8000DFED092AD8E7002070BD000010440258A9
:100E90000090D00340787D010000003930440258B2
:100EA0000024744A0024744C20BCBE4B2DE9F05F32
:100EB00004007DD0FF4F2078FE4D1837DFF8F49303
:100EC000103DC00748D0D9F80000396800F038005C
:100ED000102815D0182803D101F0030002280FD0E4
:100EE0006068B0F5803F12D010B1B0F5A02F18D0D7
:100EF000286820F480302860286820F4802009E0E9
:100F00002868800328D560680028D2D024E02868AB
:100F100040F480302860606888B1FFF74FFC0646D7
:100F200009E0286840F480202860F0E7FFF746FCDD
:100F3000801B64286FD828688003F7D50CE0FFF782
:100F40003DFC064605E000BFFFF738FC801B642827
:100F5000F0D828688003F7D4207841F20308D54EF2
:100F60000C3E800769D5D9F80000396810F03800C8
:100F70000ED0182801D188070AD0E06890B32968FC
:100F800021F0190101432960FFF718FC824631E086
:100F90002868400702D5E06800288AD0E168286800
:100FA00020F0190008432860FFF708FC824607E09C
:100FB000DFE000BFFFF702FCA0EB0A000228B9D86F
:100FC00028684007F6D500BFFFF7F2FB40451BD865
:100FD0002069402812D0316821F47C3141EA003088
:100FE00030602AE018E000BFFFF7E8FBA0EB0A0042
:100FF00002289FD828684007F6D5E5E7306820F436
:101000007C3040F40030EBE7207C316821F0FE4179
:1010100041EA0060E4E70DE1286820F00100286063
:10102000FFF7CCFB824605E0FFF7C8FBA0EB0A0008
:1010300002288DD828684007F6D42078C0065DD5F0
:10104000D9F80000DFF86CB2396800F03800ABF175
:10105000040B082810D0182803D101F00300012840
:101060000AD0E0690028286838D040F08000286065
:10107000FFF7A4FB824623E02868C00523D5E0697A
:10108000802876D11FE0206A202821D0316821F005
:10109000F84141EA8060306030E000BF94F82010F1
:1010A000DBF8002022F07C5242EA0161CBF800100C
:1010B00024E000BFFFF782FBA0EB0A00022898D8CB
:1010C0002868C005F6D5FFF773FB4045E6D8DAE798
:1010D000306820F0F84040F08040DCE720F08000ED
:1010E0002860FFF76BFB064605E000BFFFF766FBD5
:1010F000801B02289DD82868C005F7D420780007F7
:1011000029D56C486169643000298046016811D096
:1011100041F001010160FFF751FB064605E000BF09
:10112000FFF74CFB801B0228C9D8D8F800008007C5
:10113000F6D510E021F001010160FFF73FFB064604
:1011400005E000BFFFF73AFB801B022872D8D8F8F1
:1011500000008007F6D42078800623D5A0690028F7
:10116000286810D040F480502860FFF727FB06461F
:1011700005E036E1FFF722FB801B02285AD82868D9
:101180008004F7D50EE020F480502860FFF716FBAE
:10119000064604E0FFF712FB801B02284AD82868A5
:1011A0008004F7D4207840074FD5DFF80C81D8F8B9
:1011B000001041F48071C8F80010FFF7FFFA0646EE
:1011C00005E000BFFFF7FAFA801B642832D8D8F890
:1011D0000000C005F6D5374EA068603601280AD059
:1011E00008B1052813D0306820F001003060306865
:1011F00020F0040002E0306840F001003060A06898
:1012000041F2883A90B1FFF7D9FA80460AE0306897
:1012100040F004003060EEE7FFF7D0FAA0EB0801E1
:10122000514507D830688007F6D50EE0FFF7C6FABB
:10123000804607E084E000BFFFF7C0FAA0EB08019A
:1012400051457DD830688007F6D4606AB0B3DFF8C6
:101250006480D9F8001008F120084FF6F87B08F1F7
:101260000409C1F3C2010329A8F1040A69D00228C4
:10127000286820F08070286003D0FFF79FFA0446AA
:1012800084E0FFF79BFA064605E000BFFFF796FAF9
:10129000801B022877D828688001F7D4E26A40F2E0
:1012A000F331386854F8283F884340EA0210184365
:1012B000386004E01044025800480258B5E0217B31
:1012C000434622894FF4FE0C208A4FF0FE47490224
:1012D000267D521E401EA1F50071C2F308088AB295
:1012E000761E0CEA004042EA08020243504607EA32
:1012F00006610A431A60DAF8002022F00102CAF8F7
:101300000020D9F80020266A22EA0B0242EAC6022F
:10131000C9F80020DAF80010A26921F00C0111438D
:10132000CAF800100168E26921F00201114301606E
:10133000016841F480310160016841F4003101E04D
:1013400021E027E00160016841F48021016001682B
:1013500041F001010160286840F080702860FFF7CB
:101360002DFA044605E000BFFFF728FA001B02280B
:1013700009D828688001F7D557E000BFFFF71EFAAB
:10138000001B022802D90320BDE8F09F28688001D5
:10139000F4D44AE039680128D8F8000021D0A26AC4
:1013A00001F0030393421CD1E26AC1F305118A42A2
:1013B00017D1216BC0F30802491E8A4211D1616B1B
:1013C000C0F34622491E91420BD1A16BC0F30642E5
:1013D000491E914205D1E16BC0F30660491E81426E
:1013E00001D00120D0E7A16C4E46D9F80000C0F32F
:1013F000CC00814219D0DAF80000554620F00100F7
:10140000CAF80000FFF7DAF94FEA0007FFF7D6F94C
:10141000B842FBD0A26C306820EA0B0040EAC20060
:101420003060286840F0010028600020ACE7704779
:101430007047704710B5040003D094F83D0010B118
:1014400007E0012010BD002084F83C00204600F099
:1014500022F8022084F83D002068211D00F08CFA5B
:10146000012084F8480084F83E0084F83F0084F8A6
:10147000400084F8410084F8420084F8430084F876
:10148000440084F8450084F8460084F8470084F856
:101490003D00002010BD704790F83D10012901D09B
:1014A00001207047174A022180F83D100168CB687F
:1014B00043F00103CB600068904214D0B0F1804F3C
:1014C00011D0114988420ED0104988420BD01049E2
:1014D000884208D00F49884205D00F49884202D07F
:1014E0000E49884207D181680D4A1140062906D06D
:1014F000B1F5803F03D0016841F001010160002097
:101500007047000000000140000400400008004057
:10151000000C004000040140001800400040014061
:1015200007000100704770B5044600680025016996
:10153000C943890715D4C168C943890711D4EA1E74
:10154000026101212177206880698007204602D04E
:10155000FFF7E8FF04E000F0A7F8204600F0A5F848
:10156000257720680169C943490717D4C168C94371
:10157000490713D402216FF0040202612177206829
:10158000806910F4407F204602D0FFF7CBFF04E0D3
:1015900000F08AF8204600F088F825772068016975
:1015A000C943090716D4C168C943090712D40421E5
:1015B0006FF00802026121772068C0698007204629
:1015C00002D0FFF7AFFF04E000F06EF8204600F015
:1015D0006CF8257720680169C943C90617D4C1682A
:1015E000C943C90613D408216FF0100202612177A4
:1015F0002068C06910F4407F204602D0FFF792FFB8
:1016000004E000F051F8204600F04FF825772068FC
:101610000169C943C90708D1C168C943C90704D1D1
:10162000891E0161204600F041F820680169C94324
:10163000090609D4C168C943090605D46FF08001C1
:1016400001612046FFF7F4FE20680169C943C9051E
:1016500009D4C168C943090605D46FF480710161DA
:101660002046FFF7E4FE20680169C943490609D412
:10167000C168C943490605D46FF0400101612046A5
:1016800000F01EF820680169C94389060BD4C168BF
:10169000C943890607D46FF0200101612046BDE8E7
:1016A0007040FFF7C6BE70BD7047704700680349C1
:1016B000884201D1FFF788B8704700000010004051
:1016C0007047FEE700B587B006491C226846FEF762
:1016D000B3FE0021684600F007FA0349086007B02E
:1016E00000BD0000942500080000002410B586B05D
:1016F00014216846FEF7D2FE1948016841F0100136
:101700000160016801F010010591016841F00401D8
:101710000160016801F004010591016841F0800158
:101720000160016801F080010591016841F001014B
:101730000160006800220B4C082100F001000590B8
:101740002046FFF72FF800210820009001222046B4
:10175000CDE9012103916946FEF706FF06B010BDF1
:10176000E044025800100258FEE7FEE7054C4FF433
:101770007A7508212046FFF70DF8284600F0A8F9F1
:10178000F7E7000000100258502010B580F31188D0
:10179000BFF34F8FBFF36F8F00F02EFE18B10449D7
:1017A0004FF080500860002080F3118810BD0000C9
:1017B00004ED00E030B59DB04C216846FEF76EFEAA
:1017C000202113A8FEF76AFE0220FFF719F92D4920
:1017D00000242D480A6822F001020A600A680268A3
:1017E00042F440420260026802F440421B920268E6
:1017F0009204FCD5254A136843F002031360126873
:1018000002F002021B92026842F440420260026847
:101810000A6842F001020A60096801F001011B91A7
:1018200001688904FCD5022000904025049501211F
:10183000039104220B923C23CDE90904CDE90C303D
:101840000FAB0E900C2183E8130068461294FFF74B
:101850002DFB08B172B6FEE708221A95CDE91625D0
:10186000D30113AA3F200321CDE9185382E81300C6
:10187000042113A8FFF7EEF8002801D072B6FEE7A6
:101880001DB030BD2C04005818480258F4440258CA
:101890002C48F0B52C4A016841F4700101601068D1
:1018A00000F00F00072804D2106820F00F00C01DC0
:1018B000106026490020254C10340B68244D43F05D
:1018C00001030B6020600B682B400B60136803F072
:1018D0000F03072B04D9136823F00F03DB1D1360DC
:1018E0001A4C1C4A18341C4B261D371D2060174CFF
:1018F0001A4D28343060261D3860371D23603B1D8B
:1019000035601C1D3A60251D2E1D1860331D226098
:101910002860326018600A680C4B114C22F4802257
:1019200060330A60186020686FF30F00B0F1005F49
:1019300003D20C490120C1F8080143F2D2000A4940
:101940000860F0BD88ED00E000200052004402581D
:101950007FEDF6EA80020101000202020000FF01B1
:101960000010005C00800051004000520148FFF769
:10197000DABD0000D40200242DE9F047274B4FF0D8
:10198000804A274D02689842264E274F274C09D09F
:10199000504507D0A84205D0B04203D0B84201D08C
:1019A000A04205D1D1F804C022F070024CEA020234
:1019B000DFF87CC0DFF87C809842DFF87C900FD0A5
:1019C00050450DD0A8420BD0B04209D0B84207D044
:1019D000A04205D0604503D0404501D0484503D121
:1019E000CD6822F440722A434D6922F080022A43D6
:1019F000026098428A68C2620A68826207D0A04286
:101A000005D0604503D0404501D0484501D1096962
:101A1000016301214161BDE8F08700000000014041
:101A20000004004000080040000C00400004014099
:101A3000004001400044014000480140FEE7090722
:101A400000284FEA116104DB00F1E02080F8001467
:101A5000704700F00F0000F1E02080F8141D70477F
:101A60001FB500240094019402940394FEF756FFDE
:101A700001208DF80C001F218DF8081087228DF8A9
:101A800009208DF80D008DF8000068468DF80A4099
:101A90008DF80E408DF8014001948DF80B408DF8C3
:101AA0000F40FEF70DFF0420FEF746FFFEF794FE01
:101AB000FFF780FEFFF71AFEFFF704FE00F00FF8B5
:101AC000FEE7842801464FF0000000D0C81C704794
:101AD00010B500B9012000F02BFB002010BD10B59F
:101AE00000F04CFB002010BD7FB50D464169044657
:101AF000B0F9080081B1A16971B1FFF7E2FFD4E943
:101B000005122B468DE807002269D4E9001000F089
:101B100048FC039004B070BDFFF7D3FF03A92B4628
:101B2000CDE90001228AD4E9001092B200F00CFC49
:101B3000012801D00020EDE70398EBE72DE9F04103
:101B4000184C0F460546E6682068001D00F026FA8E
:101B500038B922680121206992F82C2091408843ED
:101B60002061681C07D137B12168BDE8F0410E48FB
:101B7000091D00F059BA20683544B5424560216816
:101B800005D2A06B091DBDE8F04100F035BA606BCD
:101B9000091D00F031FAA06A854200D2A562BDE8B5
:101BA000F081000018000024FC0300242DE9F0411E
:101BB000054600F045FA2E4C2E4FA068401CA06050
:101BC000206810B1606940B32DE02560A06801284D
:101BD00029D1002606EB860007EB800000F0FEF915
:101BE000761C072EF6D323488C3000F0F7F92148F5
:101BF000A03000F0F3F91F48B43000F0EFF91D48B1
:101C0000C83000F0EBF91B48DC3000F0E7F9194868
:101C10008C3060631430A06305E0E86A2168C96A0B
:101C2000814200D825600120616A491C6162E96A2D
:101C3000226988401043206101EB8100291D07EBD8
:101C4000800000F0F1F900F01BFA606900280CD068
:101C50002068E96AC06A884207D207494FF080507D
:101C60000860BFF34F8FBFF36F8FBDE8F0810000B6
:101C7000180000242003002404ED00E010B5044601
:101C800090F8510058B101280CD002280FD05020F4
:101C900080F31188BFF34F8FBFF36F8FFEE7206B88
:101CA00000F002FA2046BDE8104000F0FDB910BD7A
:101CB00011484FF4705110B5420706D00E49C01DAF
:101CC00020F00700411AC1F570510C4C002301446B
:101CD0000839A4F1180221F00701C4E900030C1A25
:101CE00011604B600B60C0E9001494604FF000413C
:101CF0005460516110BD0000100400246C000024E9
:101D0000144E4FF08058144CDFF85090A6F1C807DD
:101D100012E000BF00F094F9F068C568281D00F0DB
:101D20003DF9A068401EA0606068401E606000F041
:101D3000A7F92846FFF7A2FF60680028EAD13868B3
:101D40000128F9D9C9F80080BFF34F8FBFF36F8F17
:101D5000F2E70000E80300241800002404ED00E08E
:101D60002DE9F0479A4681466FF00303DDE90984C7
:101D700003EB8202089E206B104420F007077807CF
:101D800007D0502080F31188BFF34F8FBFF36F8FC0
:101D9000FEE74FF0000561B1002023180A5C83F8CC
:101DA00034200A5C12B1401C1028F6D384F843504A
:101DB00001E084F83450072E00D30626E662201D89
:101DC000C4E9116500F015F904F1180000F011F9EB
:101DD000E564C6F10700A06184F8505052462461C2
:101DE00049463846646200F0C1F8B8F1000F20603F
:101DF00001D0C8F80040BDE8F087000030B51149B7
:101E000000E011460A688242FBD34B685C188442AA
:101E100003D14468084623444B6043681D1895422B
:101E200009D1084C183C2468A24209D052681A44CF
:101E300042600A6812680260814200D0086030BDCA
:101E40000460F9E76C0000240648416B096829B179
:101E5000416BC968C9684968816270474FF0FF31BA
:101E6000FAE700001800002408484068401C4FF0C2
:101E7000500080F3118804D0BFF34F8FBFF36F8FF2
:101E8000FEE7BFF34F8FBFF36F8FFEE774000024B0
:101E90002DE9F0410027044600F0A6F9324E3068E3
:101EA00008B9FFF705FF706904424ED1C4B3083486
:101EB00060070ED004F00700C0F10800044460077A
:101EC00007D0502080F31188BFF34F8FBFF36F8F7F
:101ED000FEE72CB37068844237D823481830014697
:101EE0000D6801E028460D466968A14202D22968C2
:101EF0000029F7D131688D4227D007682968016031
:101F000008376868011B10290FD92819420708D023
:101F1000502080F31188BFF34F8FBFF36F8FFEE720
:101F200013E041606C60FFF769FF69687068401AF0
:101F30007060B268904200D2B060002072691143B4
:101F4000C5E90001F068401CF06000F0BBFA7807BA
:101F500007D0502080F31188BFF34F8FBFF36F8FEE
:101F6000FEE73846BDE8F0815400002470B5041F38
:101F7000094E231F4FF0807521F0010125601C1FC1
:101F80001960A0F120010B1F266044380A606FF031
:101F900002051D6070BD0000691E0008D0E9013215
:101FA00001699A60D0E901235A604A68824201D1EE
:101FB00082684A60002202610868401E0860086862
:101FC0007047000010B5044C8023046004F15400F5
:101FD0000860136010BD0000800000244FF0FF3344
:101FE00000F108010022C0E901130260C160016133
:101FF000704700210161704730B50B685A1C02D050
:1020000000F1080202E0026904E0224654682568F3
:102010009D42FAD953684B6099608A6051600861AB
:102020000168491C016030BD42684A6093688B605A
:1020300093685960916008610168491C01607047AC
:10204000502080F31188BFF34F8FBFF36F8F0A4981
:102050004868401C486001280CD10848006810F00E
:10206000FF0F07D0502080F31188BFF34F8FBFF3CD
:102070006F8FFEE7704700007400002404ED00E05D
:102080000849486828B1401E486001D180F3118892
:102090007047502080F31188BFF34F8FBFF36F8FCD
:1020A000FEE700007400002470B500282AD0164D09
:1020B000A0F1080461686869014207D1502080F3EB
:1020C0001188BFF34F8FBFF36F8FFEE722683AB1DD
:1020D000502080F31188BFF34F8FBFF36F8FFEE75F
:1020E0008143616000F080F8606869680844686056
:1020F0002046FFF783FE2869401C2861BDE8704038
:1021000000F0E0B970BD0000540000244FF0E02062
:10211000002101614FF47A72816107230349096844
:10212000B1FBF2F1491E41610361704710000024C8
:10213000020010B514D00F48006B38B1502080F366
:102140001188BFF34F8FBFF36F8FFEE700F04CF89D
:1021500000211046FFF7F2FC00F0B4F9002807D187
:1021600005494FF080500860BFF34F8FBFF36F8F6A
:1021700010BD00001800002404ED00E010B586B08A
:10218000002405AA04A9039403A80494FFF71AFFE6
:10219000DDE9030100940023CDE9011010480EA1F0
:1021A000059A00F0FEF80F490028C86211D05020AF
:1021B00080F31188BFF34F8FBFF36F8F01224FF071
:1021C000FF3088624A61CC6006B0BDE8104000F084
:1021D00041B806B010BD000049444C450000000065
:1021E000011D0008180000240248016B491C01630E
:1021F00070470000180000241448016B11B1012140
:10220000C16170470021C16111490269B2FA82F2CD
:10221000C2F11F0202EB820251F822306BB101EBD6
:10222000820101F108034A6852684A609A4201D16A
:1022300052684A60D16801607047502080F311886D
:10224000BFF34F8FBFF36F8FFEE70000180000242D
:102250002003002437481CB5374902688A4207D159
:10226000502080F31188BFF34F8FBFF36F8FFEE7CD
:1022700031490068491E884207D1502080F31188F7
:10228000BFF34F8FBFF36F8FFEE72C49FF200A7813
:102290000192087008788DF800009DF800209DF8E4
:1022A000000002F0F002824207D0502080F3118833
:1022B000BFF34F8FBFF36F8FFEE79DF8002007201D
:1022C0001F4C02F050022270A06005E09DF8002033
:1022D00052008DF80020401E9DF800201206F5D413
:1022E0000328A06007D0502080F31188BFF34F8FE0
:1022F000BFF36F8FFEE74FF44070A0600198087045
:102300000C482030016841F470010160016841F01F
:1023100070410160FFF7FAFE00206060FEF730F8C0
:102320000848016841F040410160FEF715F80020BF
:102330001CBD000000ED00E071C20F4100E400E0B0
:102340007400002434EF00E02DE9FF5F9946164643
:102350008A4683469000DDE90E87FFF799FD050068
:102360001CD05420FFF794FD040014D000202563F6
:1023700084F851004B46CDE90087CDE90240324652
:1023800051465846FFF7ECFC2046FFF70FFC0120B2
:1023900004B0BDE8F09F2846FFF786FE4FF0FF30FF
:1023A000F6E7F0B585B0DDE90B740A9DA7B1DCB1A5
:1023B00054262763022684F85160002703970DF105
:1023C000100C0095CDE901C4FFF7CAFC2046FFF7C9
:1023D000EDFB049805B0F0BD502080F31188BFF3E9
:1023E0004F8FBFF36F8FFEE7502080F31188BFF34C
:1023F0004F8FBFF36F8FFEE72DE9F0412F4C206B1D
:10240000002728B1A069401CA0613846BDE8F081D2
:10241000E668761CE66013D1606B006838B1502026
:1024200080F31188BFF34F8FBFF36F8FFEE7606BB0
:10243000A16B6163A063206A401C2062FFF704FD6A
:10244000DFF87C80A06A864209D3606B0068A0B187
:10245000606BC068C5686868864211D2A062206857
:10246000C06A00EB800158F82100012800D901273B
:10247000E0690028C9D00127C7E74FF0FF30EDE73A
:10248000281DFFF78BFDA86A18B105F11800FFF7AA
:1024900085FDE96A0120226988401043206101EB33
:1024A000810108EB8100291DFFF7BEFD2068E96A64
:1024B000C06A8142C9D30127C7E700001800002481
:1024C000200300242DE9F0472C4D286B00242646DC
:1024D00038B1FFF7B5FD286B401E2863286B40B16B
:1024E00047E0502080F31188BFF34F8FBFF36F8F09
:1024F000FEE7234F0120A968D9B3A7F1B4098046AC
:102500003868E8B1F868C46804F11800FFF746FDC0
:10251000201DFFF743FDE16A2A6908FA01F0104324
:10252000286101EB810109EB8100211DFFF77CFD92
:102530002968E06AC96A8842E2D3C5F81C80DFE7EF
:102540000CB1FFF781FCAC6944B14746FFF754FF7B
:1025500000B1EF61641EF9D10020A861E86940B1C3
:10256000084901264FF080500860BFF34F8FBFF33A
:102570006F8FFFF785FD3046BDE8F0871800002417
:10258000D403002404ED00E04FF04070E1EE100AA7
:1025900070470000C02500086D170008000000000B
:1025A00000000000800000000000000000000000AB
:1025B00000000000010203040102030406070809E9
:1025C00064656661756C745461736B00EC2500087A
:1025D0000000002480000000D40200086C260008DF
:1025E00080000024F0450000F00200080000000018
:1025F0000100000010000000000000000090D00367
:102600000090D00300000000000000000000000067
:1026100000000000000000000000000000000000BA
:1026200000000000000000000000000000000000AA
:10263000000000000000000000000000000000009A
:10264000000000000000000000000000000000008A
:10265000000000000000000000000000000000007A
:0C26600000000000AAAAAAAA00000000C6
:040000050800029954
:00000001FF
