:020000040800F2
:10000000204D0024F9030008632E0008372B000858
:10001000612E000865050008EB44000800000000A0
:10002000000000000000000000000000390300088C
:10003000670500080000000095030008793E0008ED
:100040001304000813040008130400081304000834
:100050001304000813040008130400081304000824
:100060001304000813040008130400081304000814
:100070001304000813040008130400081304000804
:1000800013040008130400081304000813040008F4
:1000900013040008130400081304000813040008E4
:1000A00013040008130400081304000813040008D4
:1000B00013040008130400081304000813040008C4
:1000C00013040008130400081304000813040008B4
:1000D00013040008130400081304000813040008A4
:1000E00013040008130400080000000013040008B3
:1000F0001304000813040008130400081304000884
:100100001304000813040008130400081304000873
:1001100013040008130400085D40000813040008DD
:100120001304000813040008130400081304000853
:100130001304000813040008130400081304000843
:1001400000000000000000000000000000000000AF
:100150001304000813040008130400081304000823
:100160001304000813040008130400081304000813
:100170001304000813040008130400080000000022
:1001800013040008130400081304000813040008F3
:1001900013040008130400081304000813040008E3
:1001A00013040008130400081304000813040008D3
:1001B00013040008130400081304000813040008C3
:1001C00013040008130400081304000813040008B3
:1001D00013040008130400081304000813040008A3
:1001E0001304000813040008130400081304000893
:1001F0001304000813040008130400081304000883
:100200001304000813040008130400081304000872
:100210001304000813040008130400081304000862
:100220001304000813040008130400080000000071
:100230001304000813040008000000001304000861
:100240001304000813040008130400081304000832
:100250001304000813040008130400081304000822
:100260001304000813040008130400081304000812
:100270001304000813040008130400080000000021
:100280001304000813040008130400080000000011
:10029000000000001304000800F002F800F03CF831
:1002A0000AA090E8000C82448344AAF10107DA45D1
:1002B00001D100F031F8AFF2090EBAE80F0013F0E7
:1002C000010F18BFFB1A43F0010318474C4F000001
:1002D0006C4F0000103A24BF78C878C1FAD8520792
:1002E00024BF30C830C144BF04680C6070470000B0
:1002F0000023002400250026103A28BF78C1FBD82F
:10030000520728BF30C148BF0B6070471FB504F0CB
:1003100061FF1FBD10B510BD00F0EFF81146FFF7EB
:10032000F5FF04F0BBF900F00DF903B4FFF7F2FF9D
:1003300003BC00F011F900002C4B19680868B0E804
:10034000F04F80F30988BFF36F8F4FF0000080F308
:10035000118870470000000008480068006880F3BA
:1003600008884FF0000080F3148862B661B6BFF3CE
:100370004F8FBFF36F8F00DF00BF00BF08ED00E0BD
:10038000DFF80C00016841F470010160704700BFA4
:1003900088ED00E0EFF30980BFF36F8F134B1A680D
:1003A0001EF0100F08BF20ED108A20E9F04F1060FA
:1003B00009B44FF0500080F31188BFF34F8FBFF3A3
:1003C0006F8F04F03FFD4FF0000080F3118809BCEF
:1003D00019680868B0E8F04F1EF0100F08BFB0ECC5
:1003E000108A80F30988BFF36F8F704718000024CC
:1003F000EFF305807047000009488047094800472F
:10040000FEE7FEE7FEE7FEE7FEE7FEE7FEE7FEE7C4
:10041000FEE7FEE704480549054A064B7047000021
:10042000813F00089902000820470024204D002445
:10043000204900242049002410B5203AC0F00B8048
:10044000B1E81850203AA0E81850B1E81850A0E8D8
:100450001850BFF4F5AF5FEA027C24BFB1E8185032
:10046000A0E8185044BF18C918C0BDE810405FEAA2
:10047000827C24BF51F8043B40F8043B08BF70471E
:10048000D20728BF31F8023B48BF11F8012B28BF23
:1004900020F8023B48BF00F8012B70474FF00002E4
:1004A00000B5134694469646203922BFA0E80C506A
:1004B000A0E80C50B1F12001BFF4F7AF090728BF45
:1004C000A0E80C5048BF0CC05DF804EB890028BFC1
:1004D00040F8042B08BF704748BF20F8022B11F0EA
:1004E000804F18BF00F8012B704770477047704766
:1004F00000487047C046002470477546FFF7F8FF74
:10050000AE4605006946534620F00700854618B000
:1005100020B5FFF77FFFBDE820404FF000064FF009
:1005200000074FF000084FF0000B21F00701AC4628
:10053000ACE8C009ACE8C009ACE8C009ACE8C00947
:100540008D46704710B50446AFF300802046BDE8E5
:100550001040FFF7EABE000001491820ABBEFEE7DD
:1005600026000200FEE7704772B6FEE770B504464B
:1005700000F038F90546601C02D0044800780444B5
:1005800000F030F9401BA042FAD370BD04000024F3
:100590002DE9F84F03247D4D00234FF001094FF062
:1005A000B04B4FF00F0AE9E009FA03F73A4076D072
:1005B0000E7906F00306012E01D0022E18D1D0F8D4
:1005C00008C04FEA430ECE6804FA0EF82CEA080C75
:1005D00006FA0EF646EA0C068660D0F804C00E79DC
:1005E0002CEA070CC6F300169E4046EA0C0646604D
:1005F0000E79F643B6070BD0C6684FEA43088F68FA
:1006000004FA08FC26EA0C0607FA08F73743C76025
:100610000E7906F00306022E12D1DE080F694FEAAA
:10062000437C00EB8606B646366A4FEADC6C0AFA73
:100630000CF807FA0CF726EA08063743CEF82070C4
:100640000F7906684FEA430807F0030704FA08FC2D
:1006500007FA08F726EA0C06374307604E6816F4D7
:10066000403F1CD04A4E376847F002073760366873
:100670009F0706F00206009623F0030606F1B04637
:10068000B6463F0FD6F80864DFF808810AFA07FC7F
:10069000404526EA0C0603D14FF0000C41E06CE027
:1006A000DFF8F4C0604502D14FF0010C39E0DFF80B
:1006B000ECC0604502D14FF0020C32E0DFF8E0C040
:1006C000604502D14FF0030C2BE0DFF8D8C0604545
:1006D00002D14FF0040C24E0DFF8CCC0604502D119
:1006E0004FF0050C1DE0DFF8C4C0604502D14FF0AB
:1006F000060C16E0DFF8B8C0604502D14FF0070CD9
:100700000FE0DFF8B0C0604502D14FF0080C08E000
:10071000DFF8A4C0604502D14FF0090C01E04FF0B2
:100720000A0C0CFA07FC4CEA060CCEF808C44F6819
:10073000DBF80060FF0226EA020600D516435F469A
:10074000CBF80060D1F804C0DBF804605FEA8C2CC1
:1007500026EA020600D516437E606E684F6826EAD8
:100760000206BF0300D516436E602E684F6826EA66
:100770000206FF0300D516432E605B1C0A6832FA9E
:1007800003F67FF411AFBDE8F88F00008000005839
:10079000F4440258000002580004025800080258AD
:1007A000000C025800100258001402580018025899
:1007B000001C02580020025800240258426921EA15
:1007C00002030A4043EA0241816170470AB1816134
:1007D00070470904FBE7000001480068000C7047FF
:1007E0000010005C0148806870470000040000248D
:1007F0000248816802781144816070470400002437
:10080000032010B500F0B0F800F050FF0F4A104977
:1008100014681368C4F3032203F00F038A5CC95CF5
:1008200002F01F0201F01F01D0400A4A20FA01F134
:100830001160094908600F2000F010F808B101208C
:1008400010BD00F051F8002010BD000018440258FF
:10085000FC510008140000241000002410B51028DA
:1008600004468AB02CD200220146362000F05CF803
:10087000362000F04BF8174804601748016841F033
:1008800010010160006809A900F010000890684696
:1008900000F0AAFE0598B0B100F0F6FE40000F4946
:1008A00000220F4CB0FBF1F10E4840F2E733046038
:1008B000C0E90332491EC0E9011201F075FE28B1FA
:1008C00001200AB010BD00F0DFFEE8E7054801F0A6
:1008D000B1FEF6E708000024E844025840420F0049
:1008E000001000403C040024074882B0016841F039
:1008F00002010160006800220F2100F00200009058
:10090000901E02B000F010B8F4440258002809DB31
:10091000410900F01F028900012001F1E02190400F
:10092000C1F80001704700000E4BF0B41B680D4683
:10093000C3F30223C3F10706042E00D90426191DB0
:10094000072901D2002300E0DB1E012404FA06F18E
:100950009C40491E2940641E994014402143F0BC2C
:1009600003F0C4BD0CED00E0064900F0070210B52D
:100970004FF6FF040868044B204040EA0220184369
:10098000086010BD0CED00E00000FA05134970B5D9
:100990000A68D243520705D5096801F00701814270
:1009A00013D118E00A6822F0070202430A60FFF739
:1009B00019FF0A4D4FF47A760446083D07E000BF60
:1009C000FFF710FF001BB04201D9012070BD28685D
:1009D000C0438004F4D4002070BD00000C480258CD
:1009E0002DE9FE4F0546DFF8E48350F8081B00248C
:1009F000F64FC943019005F12800264608F1240866
:100A0000009008011DD4A86E50B1B0F5801F0CD025
:100A1000B0F5001F0ED0B0F5401F1ED001240FE02E
:100A2000386840F40030386017E00198022102F085
:100A300019FA03E00098022102F0A4FA04000CD095
:100A400026462888C043C00523D4A86D05281ED299
:100A5000DFE800F00C11161B1B00AA6ED8F800107E
:100A600021F440111143C8F80010EAE7386840F457
:100A70000030386009E00198002102F0F3F903E04A
:100A80000098002102F07EFA044674B100E00124CF
:100A900026462888C043800528D4E86D80281ED0CB
:100AA0000CDC90B140280ED114E0AA6DD8F80010EB
:100AB00021F007011143C8F80010EAE7C02813D05D
:100AC000B0F5807F10D001240FE0386840F400308A
:100AD000386009E00198002102F0C4F903E00098B1
:100AE000002102F04FFA04469CB126462888DFF820
:100AF000DC92C04309F12C0940052CD4D5F8A8009C
:100B0000B0F5800F20D00DDCA0B1B0F5001F0FD1E3
:100B100015E0EA6DD8F8001021F4E0711143C8F82F
:100B20000010E3E7B0F5C00F13D0B0F5000F10D000
:100B300001240FE0386840F40030386009E0019883
:100B4000002102F08FF903E00098002102F01AFA68
:100B500004467CB126462888C04300052DD4D5F82C
:100B6000AC00B0F1007F21D00EDCA8B1B0F1807FE5
:100B700010D116E0D5F8A820D9F8001021F46001B2
:100B80001143C9F80010E6E7B0F1407F13D0B0F18F
:100B9000806F10D001240FE0386840F400303860D6
:100BA00009E00198002102F05DF903E000980021BE
:100BB00002F0E8F9044674B126462868C043800173
:100BC0001FD4E86CD8B110280FD0202812D03028BC
:100BD00015D0012414E0D5F8AC20D9F8001021F08C
:100BE000E0611143C9F80010E7E7386840F40030CD
:100BF000386004E00198022102F034F9044674B12F
:100C000026462888C043C0042BD4286EB0F5005F68
:100C100020D00DDCA0B1B0F5805F0FD115E06B489E
:100C2000EA6C2030016821F0300111430160E8E7EF
:100C3000B0F5405F13D0B0F5804F10D001240FE025
:100C4000386840F40030386009E00198002102F073
:100C500009F903E00098002102F094F904468CB1F0
:100C600026462888C043800429D4686EB0F5403FEA
:100C700023D010DC08B3B0F5803F14D0B0F5003FAE
:100C80000FD115E02A6ED8F8001021F4E04111438D
:100C9000C8F80010E5E7B0F5802F0ED0B0F5A02F12
:100CA0000BD001240AE00198012102F0DBF803E0F7
:100CB0000098012102F066F9044694B1264628887E
:100CC000C04340042AD4D5F8B000B0F1405F23D02F
:100CD00010DC08B3B0F1805F14D0B0F1005F0FD129
:100CE00015E06A6ED8F8001021F4E0211143C8F82D
:100CF0000010E4E7B0F1804F0ED0B0F1A04F0BD060
:100D000001240AE00198012102F0ACF803E0009808
:100D1000012102F037F9044674B126462888C04301
:100D200000041FD4286FD8B1B0F1805F0ED0B0F1AD
:100D3000005F10D0012414E0D5F8B020D9F80010DD
:100D400021F0E0411143C9F80010E7E7386840F4AA
:100D50000030386004E00198012102F083F8044675
:100D600074B126462868C043C0011ED4A86CD0B117
:100D700001280ED0022811D0032814D0012413E03A
:100D80002A6FD8F8001021F040511143C8F8001024
:100D9000E8E7386840F40030386004E00198022148
:100DA00002F060F80446ACB126462868DFF81CB0B3
:100DB000C043ABF11C0B400252D40548016841F41A
:100DC00080710160FFF70EFD824611E02C4402584D
:100DD00000480258FA48AA6C016821F00301114347
:100DE0000160E2E7FFF7FEFCA0EB0A00642835D8BB
:100DF000F4480068C005F5D58CBBDFF8C4A3B5F88E
:100E0000B4100AF1240ADAF8000001F4407100F489
:100E10004070884211D0DAF80010DAF8002021F48E
:100E2000407142F48032CAF80020DAF8002022F43F
:100E30008032CAF80020CAF80010D5F8B400B0F526
:100E4000807F1AD1FFF7CEFC029012E0FFF7CAFCB8
:100E50000299411A41F2883081420AD90324264678
:100E60002878DFF85CA3C0430AF1080AC00721D044
:100E70003CE0DAF800008007E8D5D5F8B410C1F3FB
:100E80000120032858460DD0016821F47C510160EF
:100E9000B5F8B420DAF80010C2F30B021143CAF817
:100EA0000010DDE7C84A036802EA111223F47C51FE
:100EB0001143ECE7E86F182816D005DCA0B108282C
:100EC00008D0102804D10AE020280DD028280BD003
:100ED00001240AE00198012101F0C4FF03E0009819
:100EE000012102F04FF8044664B126462878C04339
:100EF00080071ED4A86F062819D2DFE800F0160C70
:100F000011161616EA6FDAF8001021F038011143B5
:100F1000CAF80010EAE70198012101F0A3FF03E0FD
:100F20000098012102F02EF804467CB100E0012473
:100F300026462878C04340071FD4D5F894000628D9
:100F400019D2DFE800F0160C11161616AA6FDAF89F
:100F5000001021F007011143CAF80010E9E70198D9
:100F6000012101F07FFF03E00098012102F00AF85F
:100F70000446A4B100E0012426462878C043800638
:100F80002BD4D5F89000B0F1405F24D011DC10B321
:100F9000B0F1805F15D0B0F1005F10D116E0D5F848
:100FA0009420D9F8001021F007011143C9F800106E
:100FB000E3E7B0F1804F0ED0B0F1A04F0BD0012489
:100FC0000AE00198002101F04DFF03E000980221A2
:100FD00001F0D8FF044694B126462878C043400665
:100FE0002BD4D5F89C00B0F5406F24D011DC10B3A1
:100FF000B0F5806F15D0B0F5006F10D116E0D5F8C0
:101000009020DAF8001021F0E0411143CAF80010F6
:10101000E3E7B0F5805F0ED0B0F5A05F0BD0012400
:101020000AE00198002101F01DFF03E00098022171
:1010300001F0A8FF044694B126462878C043000674
:101040002BD4D5F8A000B0F5C04F24D011DC10B3DC
:10105000B0F5005F15D0B0F5804F10D116E0D5F88F
:101060009C20D9F8001021F4E0511143C9F8001078
:10107000E3E7B0F5004F0ED0B0F5204F0BD00124C0
:101080000AE00198002101F0EDFE03E00098022142
:1010900001F078FF044654B126462878C043000783
:1010A0001ED4D5F88400B0F5805F0AD00FE0D5F8E3
:1010B000A020D9F8001021F460411143C9F80010B4
:1010C000EBE70098022101F05DFF00B10126D5F8A1
:1010D0008420DAF8001021F440511143CAF80010BE
:1010E0002878C043C00613D4D5F89800B0F5807FA7
:1010F00005D10098022101F045FF00B10126D5F885
:101100009820D9F8001021F440711143C9F800105B
:101110002868C043000316D4D5F8A40038B1B0F550
:10112000803F09D0B0F5003F0BD001240AE00198C0
:10113000002101F097FE03E00098022101F022FF58
:1011400004468CB126462868C043400322D4D5F813
:101150008800B0F5801F11D0B0F5001F13D0B0F596
:10116000401F15D0012414E0D5F8A420D9F80010B0
:1011700021F440311143C9F80010E4E7386840F425
:101180000030386004E00098012101F0FBFE0446C5
:101190005CB126462868C043C00323D4286DA8B19B
:1011A000B0F5803F17D001241BE0D5F88820DAF88D
:1011B000001021F440111143CAF80010EAE70000C2
:1011C0004C44025800480258CFFFFF00386840F4F2
:1011D0000030386004E00198022101F043FE04462B
:1011E000E4B126462868C043800005D40098022157
:1011F00001F0C8FE00B101262868C04380031BD45B
:10120000D5F88000B0B1B0F5807F0FD0B0F5007F89
:1012100010D0B0F5407F0DD001240CE05A482A6D63
:10122000016821F4803111430160DBE7386840F444
:1012300000303860ECB326462868C043C00207D4AB
:101240006A6FD8F8001021F000411143C8F800106F
:101250002868C043C00008D4D5F8B820DBF80010D7
:1012600021F480411143CBF800102868C04380026C
:1012700007D4EA6ED8F8001021F080711143C8F845
:1012800000102868C04340000CD4DBF8001021F4A3
:101290000041CBF80010DBF80010D5F8BC2011435A
:1012A000CBF800102868C04308D437486A6D01683D
:1012B00000E018E021F04051114301602868C0436C
:1012C000000208D4D5F88C20DAF8001021F440018F
:1012D0001143CAF8001028790024C04300F001002F
:1012E00020430AD00FE0D5F88020DAF8001021F46E
:1012F00040711143CAF800109EE70198002101F0E7
:10130000B1FD00B106462879C04300F00200204339
:1013100005D10198012101F0A5FD00B1064628790B
:10132000C04300F00400204305D10198022101F0E0
:1013300099FD00B106462879C04300F0080020431B
:1013400005D10098002101F01DFE00B10646287964
:10135000C04300F01000204305D10098012101F0A6
:1013600011FE00B106462879C04300F02000044376
:1013700004D10098022101F005FE00B916B1012048
:10138000BDE8FE8F0020FBE74C4402582DE9F05FDA
:1013900004000F467ED0DFF83882D8F8000000F055
:1013A0000F00B8420CD2D8F8001021F00F013943D9
:1013B000C8F80010D8F8000000F00F00B84269D15A
:1013C0002078844D40070AD52069296801F0700112
:1013D000884204D9296821F07001014329602078EE
:1013E0007C4E361D00070AD56069316801F0700136
:1013F000884204D9316821F07001014331602078BE
:10140000C0060AD5A069316801F4E061884204D9B8
:10141000316821F4E061014331602078DFF8B4B134
:1014200080060BF1080B0CD5E1695846DBF800206B
:1014300002F07002914204D9026822F070020A435D
:101440000260207880070AD5E068296801F00F0162
:10145000884204D9296821F00F01014329602078CE
:10146000C0073ED05B49A2682868183920F4706034
:10147000104328606068022818D0032819D0096832
:10148000012819D0490700294ADADFF848A1AAF152
:10149000080A00E044E0DAF8002022F007020243E4
:1014A000CAF80020FFF79EF9814612E00968890317
:1014B000E9E709688901E6E7C905E4E7FFF792F97A
:1014C000A0EB090141F28830814202D90320BDE836
:1014D000F09F6168DAF8000000F03800B0EBC10F4F
:1014E000ECD1207880070AD5E068296801F00F0167
:1014F000884204D2296821F00F0101432960D8F8FD
:101500000010404601F00F01B9420BD9016821F0EB
:101510000F0139430160006800F00F00B84201D0AC
:101520000120D4E7207840070AD52069296801F016
:101530007001884204D2296821F0700101432960BA
:10154000207800070AD56069316801F0700188428F
:1015500004D2316821F07001014331602078C00667
:101560000AD5A069316801F4E061884204D231688B
:1015700021F4E06101433160207880060CD5E169F7
:101580005846DBF8002002F07002914204D2026853
:1015900022F070020A43026000F088F80E492A68BF
:1015A0002B68C2F3032203F00F038A5CC95C02F0CC
:1015B0001F0201F01F01D040084A20FA01F111601A
:1015C0000749086007480068BDE8F05FFFF746B9C3
:1015D0000020005218440258FC5100081400002456
:1015E000100000240800002470B5144C3F22026053
:1015F000124A24680832131D114D04F00704446098
:1016000016681C1D06F470668660166806F00F06E4
:10161000C660126802F0700202611A6802F070027D
:1016200042611A6802F4E0628261226802F070028C
:10163000C261286800F00F00086070BD10440258B5
:101640000020005230B500F031F80B4A0B490C4B2A
:1016500015681468C5F3032204F00F048A5C095D61
:1016600002F01F0201F01F01D040064A20FA01F1EA
:1016700019601060084630BD18440258FC5100083B
:10168000140000241000002400B5FFF7DBFF05491B
:101690000968054AC1F30211515C01F01F01C840FD
:1016A00000BD00001C440258FC510008454970B5BB
:1016B00045480968434B103B11F0380208D001112E
:1016C000082A03D0102A0BD0182A0BD0084670BD68
:1016D00019688906FBD51968C1F3C101C84070BDFE
:1016E0003A4870BD3749374D18310C1D24350A680A
:1016F000096826682D6802F0030406F00102C1F3B0
:101700000511C5F3CC0515FB02F200EE102AB8EE68
:10171000400AE9B32F4ADFED2E0AB7EE001A6CB18A
:10172000DFED2D1A012C01D0022C43D002EE101A4D
:101730001068F8EE422A81EEA22A1EE01C68A40678
:1017400011D51B6801EE901A1168C3F3C103F8EEBE
:10175000612AD84001EE900AC1F30800F8EE611A40
:1017600081EEA22A0BE001EE901ADFED1C2A00BFE9
:10177000F8EE611A106882EEA12AC0F3080001EEAB
:10178000900AF8EE611A40EE201A31EE810A00E06C
:1017900015E022EE000A1068C0F34620401C00EE5F
:1017A000900AF8EE600A80EE201ABCEEC10A10EE34
:1017B000100A70BD01EE901ADFED092AD8E700206B
:1017C00070BD0000104402580090D00340787D01A5
:1017D00000000039304402580024744A0024744C3C
:1017E00020BCBE4B2DE9F05F04007DD0FF4F207878
:1017F000FE4D1837DFF8F493103DC00748D0D9F8F4
:101800000000396800F03800102815D0182803D1DE
:1018100001F0030002280FD06068B0F5803F12D0BD
:1018200010B1B0F5A02F18D0286820F480302860BF
:10183000286820F4802009E02868800328D56068A3
:101840000028D2D024E0286840F480302860606806
:1018500088B1FEF7C7FF064609E0286840F48020FB
:101860002860F0E7FEF7BEFF801B64286FD8286869
:101870008003F7D50CE0FEF7B5FF064605E000BF94
:10188000FEF7B0FF801B6428F0D828688003F7D4E7
:10189000207841F20308D54E0C3E800769D5D9F86F
:1018A0000000396810F038000ED0182801D18807E0
:1018B0000AD0E06890B3296821F01901014329603A
:1018C000FEF790FF824631E02868400702D5E068C5
:1018D00000288AD0E168286820F0190008432860B1
:1018E000FEF780FF824607E0DFE000BFFEF77AFFE9
:1018F000A0EB0A000228B9D828684007F6D500BF37
:10190000FEF76AFF40451BD82069402812D0316895
:1019100021F47C3141EA003030602AE018E000BF59
:10192000FEF760FFA0EB0A0002289FD82868400756
:10193000F6D5E5E7306820F47C3040F40030EBE782
:10194000207C316821F0FE4141EA0060E4E70DE1CE
:10195000286820F001002860FEF744FF824605E079
:10196000FEF740FFA0EB0A0002288DD82868400748
:10197000F6D42078C0065DD5D9F80000DFF86CB247
:10198000396800F03800ABF1040B082810D0182893
:1019900003D101F0030001280AD0E069002828687B
:1019A00038D040F080002860FEF71CFF824623E01C
:1019B0002868C00523D5E069802876D11FE0206A19
:1019C000202821D0316821F0F84141EA8060306060
:1019D00030E000BF94F82010DBF8002022F07C52A9
:1019E00042EA0161CBF8001024E000BFFEF7FAFEE6
:1019F000A0EB0A00022898D82868C005F6D5FEF7A3
:101A0000EBFE4045E6D8DAE7306820F0F84040F0D9
:101A10008040DCE720F080002860FEF7E3FE064609
:101A200005E000BFFEF7DEFE801B02289DD8286877
:101A3000C005F7D42078000729D56C486169643067
:101A400000298046016811D041F001010160FEF7D4
:101A5000C9FE064605E000BFFEF7C4FE801B022853
:101A6000C9D8D8F800008007F6D510E021F00101B0
:101A70000160FEF7B7FE064605E000BFFEF7B2FEC6
:101A8000801B022872D8D8F800008007F6D420788E
:101A9000800623D5A0690028286810D040F4805023
:101AA0002860FEF79FFE064605E036E1FEF79AFE47
:101AB000801B02285AD828688004F7D50EE020F44D
:101AC00080502860FEF78EFE064604E0FEF78AFE90
:101AD000801B02284AD828688004F7D42078400761
:101AE0004FD5DFF80C81D8F8001041F48071C8F8A8
:101AF0000010FEF777FE064605E000BFFEF772FE17
:101B0000801B642832D8D8F80000C005F6D5374EBF
:101B1000A068603601280AD008B1052813D03068C3
:101B200020F001003060306820F0040002E03068EE
:101B300040F001003060A06841F2883A90B1FEF7B1
:101B400051FE80460AE0306840F004003060EEE765
:101B5000FEF748FEA0EB0801514507D83068800722
:101B6000F6D50EE0FEF73EFE804607E084E000BFBB
:101B7000FEF738FEA0EB080151457DD8306880079C
:101B8000F6D4606AB0B3DFF86480D9F8001008F1C9
:101B900020084FF6F87B08F10409C1F3C2010329BC
:101BA000A8F1040A69D00228286820F08070286013
:101BB00003D0FEF717FE044684E0FEF713FE064648
:101BC00005E000BFFEF70EFE801B022877D82868CC
:101BD0008001F7D4E26A40F2F331386854F8283FC4
:101BE000884340EA02101843386004E01044025869
:101BF00000480258B5E0217B434622894FF4FE0C91
:101C0000208A4FF0FE474902267D521E401EA1F554
:101C10000071C2F308088AB2761E0CEA004042EA5C
:101C200008020243504607EA06610A431A60DAF8DE
:101C3000002022F00102CAF80020D9F80020266A0C
:101C400022EA0B0242EAC602C9F80020DAF80010C4
:101C5000A26921F00C011143CAF800100168E26981
:101C600021F0020111430160016841F480310160FB
:101C7000016841F4003101E021E027E001600168E2
:101C800041F480210160016841F001010160286890
:101C900040F080702860FEF7A5FD044605E000BF17
:101CA000FEF7A0FD001B022809D828688001F7D59F
:101CB00057E000BFFEF796FD001B022802D9032063
:101CC000BDE8F09F28688001F4D44AE03968012813
:101CD000D8F8000021D0A26A01F0030393421CD17E
:101CE000E26AC1F305118A4217D1216BC0F30802E1
:101CF000491E8A4211D1616BC0F34622491E9142AE
:101D00000BD1A16BC0F30642491E914205D1E16B94
:101D1000C0F30660491E814201D00120D0E7A16CCA
:101D20004E46D9F80000C0F3CC00814219D0DAF851
:101D30000000554620F00100CAF80000FEF752FDF1
:101D40004FEA0007FEF74EFDB842FBD0A26C3068A8
:101D500020EA0B0040EAC2003060286840F0010031
:101D600028600020ACE700002DE9F047040029D0EE
:101D7000594A4FF000092068584B594D9042C4F819
:101D8000289006D0984204D0A84202D0E1680F29DA
:101D900018D8E1684FF0010AE76B0831C9080AEB6F
:101DA00057167143904205D0984203D0A84201D003
:101DB000082907D8904203D0984201D0A84204D104
:101DC000102902D90120BDE8F08794F8810020B9DC
:101DD000204684F8809000F085F8022084F8810085
:101DE0002068016821F0010101602068A169826812
:101DF000B1F1806F02F4F81110D16268B2F5800F72
:101E000001D01AB10AE0A26B22B107E0A26BB2F1D5
:101E1000805F03D1026842F4805202606068400231
:101E200009D5E068072806D32068236D026822F4EC
:101E300080721A4303E02068026822F48072026014
:101E4000A66AE069E26B25683043E3680A43104301
:101E50001843A860D4E90D02D4E90581636A2569B5
:101E60001843D4F820C00A43266810432843A56DC0
:101E7000D4E90172D4E9123140EA080040EA0C00CA
:101E800038430843104318432843F060606868B93A
:101E90002068816821F4C05141F4006181602068AC
:101EA000816821F4C06141F4806181602068016D26
:101EB00021F0010101656068400206D52068626D6D
:101EC000C16821F000411143C160C4F8849084F8D6
:101ED00081A0002077E7000000300140003800407A
:101EE000003C004010B5B6B00446142130A8FEF7FF
:101EF000D5FAC0216846FEF7D1FA19492068884210
:101F00002BD14114002019900446CDE900106846F9
:101F1000FEF766FD08B1FEF727FB1248016841F4A1
:101F200000510160006800F4005035900D481038F1
:101F3000016841F010010160006830AB022100F03F
:101F4000100035904FF4A040052283E813000648A6
:101F500030A9CDE93342FEF71BFB36B010BD0000BF
:101F600000340140F0440258001002582DE9F84FA7
:101F70000446006816468A460021984694F8802058
:101F800000F1300B0091012A0CD0012784F88070F9
:101F9000FEF728FC814694F881000025012804D032
:101FA000022034E00220BDE8F88FBAF1000F2DD0F6
:101FB00066B3A1680420C4F864A0A4F8686084F83B
:101FC0008100C4F88450A4F86A60E565A4F8605004
:101FD000A4F86250B1F5C02F25676567206819D055
:101FE000C16821F4C02141F48021C16020684168AA
:101FF0006FF30F01314341602068016841F0010136
:1020000001606068B0F5800F09D00DE0012084F810
:102010008050C8E7016821F400610160E6E72068AC
:10202000016841F400710160E0680F2823D948F28B
:10203000080600BFB4F86A0088B3206841693142DD
:102040000BD0006B616E0860606E001D6066B4F8B6
:102050006A00401EA4F86A00ECE7FEF7C3FBA0EBA1
:102060000901414503D3B8F1FF3FE3D058E0B8F18F
:10207000000FDFD154E007281FD841E020684069F5
:10208000C0070DD0BBF80000616E0880606E801C38
:102090006066B4F86A00401EA4F86A000DE033E000
:1020A000FEF7A0FBA0EB0901414503D3B8F1FF3FC8
:1020B00003D035E0B8F1000F32D0B4F86A00002840
:1020C000DCD121E020684169C9070CD090F83000CC
:1020D000616E0870606E401C6066B4F86A00401E55
:1020E000A4F86A000CE0FEF77DFBA0EB0901414576
:1020F00003D3B8F1FF3F03D012E0B8F1000F0FD0C7
:10210000B4F86A000028DDD1204600F0CBFF84F847
:102110008170D4F8840084F8805080B1012042E7B7
:10212000204600F0BFFFD4F8840084F8805040F4CB
:102130008070C4F8840084F88170032033E700982D
:1021400031E72DE9FC5F0446006817468A46002106
:10215000994694F8802000F1200B0191012A0DD0BE
:102160004FF0010884F88080FEF73CFB064694F8A7
:1021700081000025012804D0022034E00220BDE8BF
:10218000FC9FBAF1000F2DD067B3A1680320C4F8FB
:102190005CA0A4F8607084F88100C4F88450A4F8AE
:1021A00062706566A4F86850A4F86A50B1F5C02F53
:1021B00065672567206819D0C16821F4C02141F402
:1021C0000031C160206841686FF30F0139434160FD
:1021D0002068016841F0010101606068B0F5800F7E
:1021E00009D00DE0012084F88050C8E7016841F46F
:1021F00000610160E6E72068016841F40071016058
:10220000E0680F281CD820E02068416989070BD5B9
:10221000E16D09680162E06D001DE065B4F86200DF
:10222000401EA4F862000BE0FEF7DCFA811B494572
:1022300003D3B9F1FF3F03D099E0B9F1000F30D0DB
:10224000B4F862000028DFD177E007282DD870E0CD
:102250002068416989071CD5B4F8621001290BD99F
:10226000E16B49B1E16D09680162E06D001DE06557
:10227000B4F86200801E09E0E06D0188ABF8001040
:10228000E06D801CE065B4F86200401EA4F86200B6
:102290000BE0FEF7A7FA811B494503D3B9F1FF3FD5
:1022A00003D064E0B9F1000F61D0B4F862000028F7
:1022B000CED142E02068416989072ED5B4F862107A
:1022C00003290CD9E16B402909D9E16D0968016244
:1022D000E06D001DE065B4F86200001F1AE0B4F87C
:1022E000621001290CD9E16B51B1E06D0188ABF8A6
:1022F0000010E06D801CE065B4F86200801E09E00B
:10230000E16D097880F82010E06D401CE065B4F8BC
:102310006200401EA4F862000BE0FEF763FA811B26
:10232000494503D3B9F1FF3F03D020E0B9F1000FD5
:102330001DD0B4F862000028BCD100224B46082111
:102340002046009600F00CFF28B1D4F8840040F03D
:102350002000C4F88400204600F0A4FE84F88180A8
:10236000D4F8840084F8805080B1012007E720462B
:1023700000F098FED4F8841084F8805041F4807105
:10238000C4F8841084F881800320F8E60198F6E60A
:1023900070477047704700002DE9F04390F83C20EB
:1023A000012A42D0012280F83C2051F80C4BDFF882
:1023B00080804FF0000991E8680051E9022723F47A
:1023C0004073B1F80CC03B43CF6923F480631343DF
:1023D000026823F40063234323F4805343EA050394
:1023E00023F4005343EA060323F4804343EA07033C
:1023F0000C3923F47023424543EA0C4302D00D4CC0
:10240000A2420CD18D8C23F47006D1E9073446EA40
:10241000055121F08071194321F000732343536467
:1024200080F83C900020BDE8F0830220FBE700002C
:102430000000014000040140F0B590F83C20012A62
:102440003BD01F4E012480F83C40022280F83D2002
:1024500002681C4D5368B242D2F808C001D0AA42AB
:1024600003D14F6823F470033B430F6823F07003DC
:102470001F4357600268B24213D0B2F1804F10D0B0
:10248000114B9A420DD0114B9A420AD0104B9A42EE
:1024900007D0AA4205D00F4B9A4202D00E4B9A4267
:1024A00004D189682CF0800319439160002180F8E1
:1024B0003D4080F83C100846F0BD0220F0BD000011
:1024C00000000140000401400004004000080040FA
:1024D000000C0040001800400040014010B50446C8
:1024E0004FF0020249B104290ED0082913D094F804
:1024F0004700012816D0012010BD94F8440001289F
:10250000F9D184F844200FE094F845000128F2D175
:1025100084F8452008E094F846000128EBD184F8BF
:10252000462001E084F847200422206801F0FEFDE7
:1025300020681549426C42F4004242642068884297
:1025400014D0B0F1804F11D0104988420ED01049FC
:1025500088420BD00F49884208D00F49884205D0E5
:102560000E49884202D00E49884207D181680D4A3F
:102570001140062906D0B1F5803F03D0016841F033
:1025800001010160002010BD000001400004004076
:1025900000080040000C004000040140001800400A
:1025A000004001400700010010B5040003D094F87A
:1025B0003D0010B107E0012010BD002084F83C0070
:1025C000204600F023F8022084F83D002068211DF9
:1025D00001F04AFD012084F8480084F83E0084F8A8
:1025E0003F0084F8400084F8410084F8420084F8F9
:1025F000430084F8440084F8450084F8460084F8D9
:10260000470084F83D00002010BD000008B50068B8
:102610000649884208D10648016841F0010101607D
:10262000006800F00100009008BD000000000140BB
:10263000F044025890F83D10012901D00120704764
:10264000174A022180F83D100168CB6843F001036E
:10265000CB600068904214D0B0F1804F11D0114986
:1026600088420ED0104988420BD01049884208D0C9
:102670000F49884205D00F49884202D00E4988424E
:1026800007D181680D4A1140062906D0B1F5803F77
:1026900003D0016841F00101016000207047000093
:1026A000000001400004004000080040000C004011
:1026B00000040140001800400040014007000100F4
:1026C00070B5044690F83C000025012814D03A4B20
:1026D000012684F83C60022084F83D00226890685E
:1026E000184020F47F409060086870282FD010DCDC
:1026F00010F00F0F03D022E04FF0020070BD4FEA40
:102700002012072A1BD2DFE802F0535353534B39F0
:102710004100B0F1101F4BD009DCB0F5805F0FD045
:10272000B0F5005F1ED0B0F5801F08D140E0A0F5E5
:10273000801120393CD010293AD0202938D00125E9
:1027400084F83D60002084F83C00284670BD4A684B
:102750002068D1E9021301F0F6FC2068816841F09D
:10276000770109E04A682068D1E9021301F0EBFC27
:102770002068816841F480418160E1E7CA68496866
:10278000206801F08FFE2068502106E0CA68496881
:10279000206801F098FE2068602101F0DDFCCFE7A1
:1027A000CA684968206801F07DFE20684021F4E78E
:1027B000226801461046F0E788FFCEFF704770B5EB
:1027C0000446006800250169C943890715D4C1681A
:1027D000C943890711D4EA1E0261012121772068CB
:1027E00080698007204602D0FFF7E8FF04E000F090
:1027F000D1F8204600F093F9257720680169C94394
:10280000490717D4C168C943490713D402216FF09F
:102810000402026121772068806910F4407F20461D
:1028200002D0FFF7CBFF04E000F0B4F8204600F040
:1028300076F9257720680169C943090716D4C1686C
:10284000C943090712D404216FF0080202612177FD
:102850002068C0698007204602D0FFF7AFFF04E080
:1028600000F098F8204600F05AF9257720680169B1
:10287000C943C90617D4C168C943C90613D408217E
:102880006FF01002026121772068C06910F4407F68
:10289000204602D0FFF792FF04E000F07BF82046CC
:1028A00000F03DF9257720680169C943C90708D1BF
:1028B000C168C943C90704D1891E0161204600F0DF
:1028C0002FF920680169C943090609D4C168C943C1
:1028D000090605D46FF0800101612046FFF759FD1C
:1028E00020680169C943C90509D4C168C9430906FB
:1028F00005D46FF4807101612046FFF749FD20681F
:102900000169C943490609D4C168C943490605D4C8
:102910006FF040010161204600F00CF92068016968
:10292000C94389060BD4C168C943890607D46FF02F
:10293000200101612046BDE87040FFF72BBD70BD4E
:1029400010B586B0044614216846FDF7A7FD0E4970
:102950002068884216D10D48016841F010010160DD
:1029600000680123022200F01000059000204FF4BF
:10297000806100916946CDE90120CDE90303044857
:10298000FDF706FE06B010BD00000140E04402580D
:1029900000100258704770B5044690F83C000026BD
:1029A0000D4601280BD0012084F83C000C2A4AD0A7
:1029B00007DC82B1042A20D0082A06D131E00220A7
:1029C00070BD102A53D0142A63D00126002084F849
:1029D0003C00304670BD206801F0C8FB206881696A
:1029E00041F0080181612068816921F00401816161
:1029F00020682A698169114311E0206801F00AFC0E
:102A00002068816941F4006181612068816921F455
:102A10008061816120682969826942EA01218161BE
:102A2000D4E7206801F042FC2068C16941F0080148
:102A3000C1612068C16921F00401C16120682A696F
:102A4000C169114311E0206801F07CFC2068C16974
:102A500041F40061C1612068C16921F48061C161F4
:102A600020682969C26942EA0121C161AEE7206894
:102A700001F0A4FC2068416D41F008014165206827
:102A8000416D21F00401416520682A69416D1143BF
:102A900011E0206801F0CCFC2068416D41F4006138
:102AA00041652068416D21F4806141652068296994
:102AB000426D42EA0121416588E710B5040003D068
:102AC00094F83D0010B107E0012010BD002084F80B
:102AD0003C00204600F022F8022084F83D002068E7
:102AE000211D01F0C1FA012084F8480084F83E005D
:102AF00084F83F0084F8400084F8410084F84200E4
:102B000084F8430084F8440084F8450084F84600C3
:102B100084F8470084F83D00002010BD70477047DE
:102B200000680349884201D1FDF762BE704700008A
:102B3000001000407047FEE701480068806B704756
:102B4000F00300242DE9F0410D4601462DED028BE6
:102B5000FFF7F2FF8842044631D0002D2FD001EE5E
:102B6000904A01EE101A00EE905AF8EE611AB8EE93
:102B7000411AB8EE602A9FED140A71EEC10A30EED8
:102B8000420A80EE808AFDF72DFE104F0646012096
:102B9000FDF7ECFCFDF726FE801B3A6800EE904A3C
:102BA00000EE100AF8EE600AB8EE400A40EE080A9D
:102BB000BCEEE00A10EE101A9163A842E7D3BDEC18
:102BC000028BBDE8F081000000000000F00300244B
:102BD0001CB5184C032200210120A26021736073F0
:102BE0001549164800F094FF154D0521134822465B
:102BF0002B6898471049AA68091F10489047114947
:102C00004FF49670096888631F2160680022CDE93F
:102C1000000123681146AC6B0848A0474FF47A7452
:102C2000651021460A20FFF78DFF21462846FFF751
:102C300089FFF6E778460024F40000248846002443
:102C400080000024F003002400B587B006491C2250
:102C50006846FDF7F1FB0021684601F04EFD03498F
:102C6000086007B000BD0000E0510008000000242B
:102C7000F0B587B014216846FDF710FC26480168BE
:102C800041F010010160016801F010010591016837
:102C900041F004010160016801F00401059101683F
:102CA00041F080010160016801F080010591016837
:102CB00041F00101016000680022184F082100F076
:102CC000010005903846FDF781FD4FF42056384647
:102CD00001223146FDF77AFD0024694601250820CE
:102CE0000090CDE9015438460394FDF751FC0221D0
:102CF000680300900A48CDE901416946FDF748FCA8
:102D000003206946CDE90065CDE902403846FDF76C
:102D10003FFC07B0F0BD0000E0440258001002582C
:102D2000000802582DE9F04115484FF480060021B3
:102D3000124D34010722C0E90321E300C0E9051464
:102D4000C0E9073141625A0081624FF4C027C16275
:102D5000C0E90D21C163016441648164C1640165FE
:102D60004165816580E8E000FEF7FEFF002803D0A2
:102D7000BDE8F041FDF7F8BBBDE8F081003401404B
:102D80006803002410B59AB000241C21009412A8F6
:102D9000019402940394049405940694FDF77EFB39
:102DA0002C2107A8FDF77AFB2C480B222A4940F278
:102DB000E73380E81600C0E9033444618461FFF71B
:102DC000F3FB08B1FDF7D0FB4FF48050009023488F
:102DD0006946FFF775FC08B1FDF7C6FB1F48FFF712
:102DE0006CFE08B1FDF7C0FB1C4804A904940594CF
:102DF0000694FFF721FB08B1FDF7B6FB12AB60208C
:102E00004FF4FA7183E8130008221448CDE9152421
:102E10000422179412A91894FFF7BDFD08B1FDF71D
:102E2000A3FB4FF4005007940894099401030A94FB
:102E3000CDE90B40CDE90E41084807A90D94109447
:102E40001194FFF7A9FA08B1FDF78EFB0348FFF7CD
:102E500077FD1AB010BD000000000140F00300240F
:102E6000FEE7FEE72DE9F047454D044689464FF061
:102E7000000A2868C04380070AD0414E283E3068C7
:102E800020F080603060FDF7ADFC0746B04608E0FA
:102E90000120BDE8F08700BFFDF7A4FCC01B02289D
:102EA00067D8D8F800000001F6D4206829684FF4EC
:102EB000FE0721F47C313E0241EA00302860207A8E
:102EC000A389B4F804C040022D4D2D495B1E227C1D
:102ED000ACF1010C1035091DA0F5007080B2521E36
:102EE000CCF3080C07EA034340EA0C00184306EA57
:102EF0000262104328600868626920F0C000104335
:102F000008600A68A06922F0200202430A60281DB6
:102F10000A6822F010020A6002684FF6F873E4694A
:102F20009A4342EAC40202600868B9F1000F40F017
:102F300010020A6011D00868B9F1010F11D040F4F5
:102F400000100860D8F80000444640F08060C8F8DF
:102F50000000FDF747FC05460DE0086840F400203E
:102F6000EFE740F48010ECE7FDF73CFC401B022843
:102F700001D903208DE720680001F5D5504688E788
:102F8000284402582DE9F047454D044689464FF044
:102F9000000A2868C04380070AD0414E283E3068A6
:102FA00020F080503060FDF71DFC0746B04608E079
:102FB0000120BDE8F08700BFFDF714FCC01B02280C
:102FC00067D8D8F800008000F6D4208829684FF42C
:102FD000FE0721F07C713E0241EA00502860207A11
:102FE000A389B4F804C040022D4D2D495B1E227CFC
:102FF000ACF1010C1835091DA0F5007080B2521E0D
:10300000CCF3080C07EA034340EA0C00184306EA35
:103010000262104328600868626920F4406010432F
:1030200008600A68A06922F4007202430A60281D41
:103030000A6822F480720A6002684FF6F873E46945
:103040009A4342EAC40202600868B9F1000F40F4F2
:1030500080720A6011D00868B9F1010F11D040F0F8
:1030600080700860D8F80000444640F08050C8F8EE
:103070000000FDF7B7FB05460DE0086840F480004E
:10308000EFE740F40000ECE7FDF7ACFB401B022843
:1030900001D903208DE720688000F5D5504688E7E8
:1030A0002844025810B5026840F26F3351699469A0
:1030B00044F0080494610268946944F01004946137
:1030C0000268146824F001041460026814699C43C7
:1030D00014610268936823F44043936090F8812060
:1030E000042A0CD08A060AD5D0F8842042F0800247
:1030F000C0F884200268936943F02003936190F83C
:103100008120032A0CD04A060AD5D0F8842042F048
:103110000402C0F884200268936943F0400393617D
:103120008A050AD5D0F8842042F00102C0F8842034
:103130000268936943F400739361C9050AD5D0F816
:10314000841041F00801C0F8841001688A6942F4D3
:1031500080728A610021A0F86210A0F86A1010BD88
:103160002DE9F0411C4616460D460746DDF818804D
:103170000AE000BFFDF736FBA0EB0800A04202D337
:10318000601C01D00BE054B13868406935EA00009A
:1031900007D00020B042EDD00020BDE8F081032030
:1031A000FBE70120F6E7002070470000F8B5044671
:1031B0006A46002003468DF8000004F12000132128
:1031C000054601F00AFD0A210646204600F006FAEF
:1031D00000236A462821284601F0FFFC06442046C9
:1031E0000A2100F0FBF900236A463621284601F047
:1031F000F4FC01460B488C190B49027B806801EBFB
:10320000C00000790AB940F00800694601228DF833
:103210000000284601F0DAFC001901D04FF0FF3021
:10322000F8BD000078460024CC000024F8B5044620
:103230006A46002003468DF8000004F120001321A7
:10324000054601F0CAFC0A210646204600F0C6F9F0
:1032500000236A462921284601F0BFFC0644204687
:103260000A2100F0BBF900236A463621284601F006
:10327000B4FC01460B488C190B49027B806801EBBA
:10328000C00000790AB940F00800694601228DF8B3
:103290000000284601F09AFC001901D04FF0FF30E1
:1032A000F8BD000078460024CC0000242DE9FF4F33
:1032B00093F8038093469C7883B0DF7A4FF000093F
:1032C00093F80CC004EB0824997ACA4693F80D8051
:1032D000DE7C01EB07211F7D4FEA0C4C9A7C0CEB46
:1032E000086893F815C08844DD7D3F0402EB062290
:1032F0001E7E987D07EB0C6C5F7E6244360400EB0B
:1033000005201D7906EB07665F7930442D0405EB37
:103310000767324D3C4403EB080613466D68009086
:10332000A5EB0B05291AA4EB080B88460A46DDE934
:10333000030100F089FC4FF0FF35E8BB274C284F14
:10334000207B0028A06817F8300001D140F0080069
:103350008DF804000398012336212030009001AA43
:1033600001F03BFC40BBDDE90301424600F006FCF6
:1033700010BB707802228DF8080002A930788DF811
:103380000900009801F022FC08B1A94604E0B61C2F
:103390000AF1020ADA45ECD3207B0028A06807EB8B
:1033A000C000007901D140F008008DF8040001232D
:1033B0000098362101AA00E00BE001F00EFC40B9B4
:1033C00060680022009011462368039800F03CFCDE
:1033D00000B1A94607B04846BDE8F08F7846002402
:1033E000CC0000242DE9F0411D46144B00248046FA
:1033F000069F48194FF0FF361B68984219D840467F
:1034000000F0BCFBA8B90E490020C7F30722FBB2AD
:1034100006E000BF01EB400701F81020401C7B7064
:10342000A842F7D306496A0008F1200001F0CEFB5C
:1034300000B134462046BDE8F08100007846002403
:10344000F84300242DE9F05F8A460F491E46834663
:10345000DDF8289090190025174649684FF0FF388D
:10346000884208D8002409E03A194B46514658468C
:1034700000F0C6FC08B1454602E0641CB442F3D338
:103480002846BDE8F09F0000784600242DE9FF5F44
:103490001D481C4691468B46DDE90E674FF0FF3A0A
:1034A0004FF0000803688A199A4204D8416809EB72
:1034B0000700884201D9D04622E000251EE000BF67
:1034C000009809EB0502594600F058FBA0B90F49D6
:1034D000002008E0227801F8102001EB4002637818
:1034E000401CA41C5370B042F4D3009872000749EA
:1034F000203001F06BFB00B1D0466D1CBD42DFD324
:1035000004B04046BDE8F09F78460024784100248E
:103510002DE9F84F002699468A468346DDE90A7868
:10352000144635460DE04B46224651465846CDF8E6
:103530000080FFF757FF10B14FF0FF3603E0641C27
:103540006D1CBD42EFD33046BDE8F88F4FF0FF3021
:103550007047000002488068086000207047000043
:1035600078460024FEB51C46054600F007FB0646DB
:1035700005F120002E21054602AA01F019FB0644A0
:103580002846012202A901F01AFB064469460122DD
:10359000284601F014FB06442846012201A901F047
:1035A0000EFB9DF8042080199DF8001001EB02210C
:1035B000216001D04FF0FF30FEBD000002480068DE
:1035C00008600020704700007846002402484068E8
:1035D00008600020704700007846002470B505465A
:1035E000C0690E4680470446E8698047001BB04228
:1035F000FAD3002070BD2DE9F74F5FEA000982B0D1
:103600007DD04FF0000B6A4601215C4609F1200095
:103610005B468DF800B0019001F0DFFA7821484652
:10362000FFF7DCFF0198002301216A468DF8004076
:1036300001F0D3FA782105464846FFF7CFFF0198FD
:10364000012311216A468DF8004001F0C6FA0023DB
:103650006A46B1210544019801F0BFFA4619019864
:10366000012569462A468DF8005001F0AFFA871906
:1036700001982C26694601228DF8006001F0A6FA17
:1036800000EB07084FF02D0A0198012257466946C2
:103690008DF800A001F09AFA01236A46B2218DF854
:1036A00000508044019801F098FA01226946804454
:1036B00001988DF8006001F089FA01226946804482
:1036C00001988DF8007001F081FA01236A46B32158
:1036D0008DF800508044019801F07FFA012269467C
:1036E000804401988DF8006001F070FA012269466B
:1036F000804401988DF8007001F068FA00E0CCE198
:1037000001226946804401988DF8005001F05EFA6C
:103710000122694600EB080501988DF8006001F070
:1037200055FA46190198012269468DF8007001F09A
:103730004DFA07256A4601238DF80050B42106444E
:10374000019801F04AFAA2216A46871901980123DB
:103750008DF80010C02101F040FA022669460122CE
:103760008DF800600744019801F030FA84218DF84B
:103770000010012269460744019801F027FAC5218B
:103780006A4601238DF80010C1210744019801F019
:1037900024FA0A216A4601238DF80010C221074449
:1037A000019801F01AFA01226946074401988DF840
:1037B000004001F00BFA8A246A4601238DF800408C
:1037C000C3210744019801F008FA2A218DF800105E
:1037D000012269460744019801F0F8F901236A467D
:1037E000C4218DF800400744019801F0F6F9EE215C
:1037F0008DF80010C41901980122694601F0E6F91C
:103800000E216A4601238DF80010C5210444019859
:1038100001F0E3F9049904444FF000036A46097B80
:1038200000297ED02021019801F0D7F901233A2107
:103830000444019803AA01F0D0F90123B046E02125
:103840006A46044401988DF8006001F0C6F91C2115
:103850008DF80010012269460444019801F0B6F980
:1038600001226946044401988DF8005001F0AEF938
:1038700012218DF80010012269460444019801F0DC
:10388000A5F937218DF800100122694604440198FA
:1038900001F09CF932218DF80010012269460444A0
:1038A000019801F093F92926694601228DF80060FC
:1038B0000444019801F08AF9012269460444019800
:1038C0008DF800A001F082F90122694604440198B4
:1038D0008DF8006001F07AF925218DF800100122A1
:1038E00069460444019801F071F92B218DF800100C
:1038F000012269460444019801F068F939218DF8E4
:103900000010071901980122694601F05FF90122B0
:103910005C460744019869468DF800B001F056F9FD
:1039200000E0BFE001218DF80010074401980A462D
:10393000694601F04BF901224FF0030B074401984F
:1039400069468DF800B001F041F90744694610203E
:103950008DF800000198012201F038F901236A4630
:10396000E1218DF800B00744019801F036F90744D1
:1039700069461D208DF800000198012201F026F90A
:1039800001226946074401988DF8005001F01EF9A4
:1039900006218DF80010012269460744019801F0C4
:1039A00015F92E25694601228DF80050074401982B
:1039B00001F00CF9074469462C208DF800000198AD
:1039C000012201F003F901226946074401988DF8AC
:1039D000006001F0FBF8C6190198012269468DF8D4
:1039E00000A001F0F3F801226946064401988DF821
:1039F000005001F0EBF801226946064401988DF869
:103A0000005001F0E3F837218DF800108519019876
:103A10000122694601F0DAF83F218DF800100122F9
:103A200069460544019801F0D1F801226946054430
:103A300001988DF8004001F0C9F80122694605445B
:103A400001988DF8004001F0C1F801226946054453
:103A500001988DF8008001F0B9F810218DF8001060
:103A6000012269460544019801F0B0F801236A4635
:103A700013218DF800400544019801F0AEF8441977
:103A8000019801236A46292101F0A7F8044404990A
:103A9000484600F065F9001901D04FF0FF3005B03D
:103AA000BDE8F08F2121BEE6F8B520300E46DA21C0
:103AB0006A46074601F07CF84FF0FF3408B1204613
:103AC000F8BD6D463846DB216A1C01F071F800280C
:103AD000F5D1AA1C3846DC2101F06AF80028EED1A5
:103AE000BDF801109DF8002049BA62F31F41316012
:103AF000F8BD30B40C4603692046114630BC184767
:103B000030B40C4683692046114630BC184700008B
:103B10004FF0FF3210B5E0B10B6803604C68002B2A
:103B200044600C890481CC68C4600C6904614C69F0
:103B300044618C698461C969C1610749416207496F
:103B40000162074981620749C0E90B1001D098471B
:103B50000246104610BD0000F33A0008493E000836
:103B6000693B0008013B000830B40C46436920461D
:103B7000114630BC18474FF0FF307047F8B5144677
:103B8000304A0D46114693680A7B497B012B0FD8BA
:103B9000012902D0022906D018E00AB1183515E033
:103BA000641C1A3512E0012A10D1641CAD1C0DE012
:103BB000012902D0022905D008E00AB1183405E035
:103BC0001A3402E0012A01D1A41C6D1C6A4620307F
:103BD000002306462A2101F000F807466946280A14
:103BE0008DF800000122304600F0F0FF07446946DE
:103BF000012230468DF8005000F0E8FFC5196A46F2
:103C0000002330462B2100F0E8FF210A8DF8001038
:103C1000054469460122304600F0D8FF0544694654
:103C2000012230468DF8004000F0D0FF44196A466A
:103C3000002330462C2100F0D0FF001901D04FF0B6
:103C4000FF30F8BD784600242DE9F8431546434A75
:103C50000C461E461146DDF8209093680A7B497B8E
:103C6000012B0ED8012902D0022905D019E00AB192
:103C7000183416E01A3402E0012A12D1A41C6D1C7B
:103C80000FE0012902D0022907D00AE004F1010463
:103C90000AB1183505E01A3503E0012A01D1641C88
:103CA000AD1C6A462030002380462A2100F095FF93
:103CB00007466946200A8DF800000122404600F0C0
:103CC00085FF07446946012240468DF8004000F018
:103CD0007DFF34446946641EC619200A8DF8000031
:103CE0000122404600F072FF064469460122404628
:103CF0008DF8004000F06AFF84196A4600234046B0
:103D00002B2100F06AFF290A8DF80010044469464F
:103D10000122404600F05AFF06196946012240463A
:103D20008DF8005000F052FF05EB09046946641E4F
:103D30008519200A8DF800000122404600F046FF58
:103D400005446946012240468DF8004000F03EFFE0
:103D5000401901D04FF0FF30BDE8F88378460024C9
:103D60002DE9FC41244C50234A7B05468F68A02056
:103D700080263FB1012F05D0012A0FD08AB1022A37
:103D80000FD010E0012A03D02AB1022A03D00AE0A2
:103D9000C4E9003007E0C4E9006004E0C4E90003BE
:103DA00001E0C4E9000688680022A060087B207357
:103DB000487B114660736068009028462368FFF7CF
:103DC00043FF217B06460D480029A16800EBC10096
:103DD000007901D140F008008DF80400012336215C
:103DE00001AA05F1200000F0F8FE801901D04FF083
:103DF000FF30BDE8FC81000078460024CC000024A0
:103E0000F8B506460F481F0A4FF6FF7404EA03236D
:103E10004FF0FF353B43ADF80030036800248B4280
:103E20000DD9406890420AD93046FFF7A7FE30B955
:103E30000222694606F1200000F0C8FE00B12C46BF
:103E40002046F8BD78460024F0B4C66814460D46F6
:103E500021462846B446F0BC1A466047054C4FF44C
:103E60007A7508212046FCF7A9FC284600F039FCA9
:103E7000F7E7000000100258502010B580F31188B9
:103E8000BFF34F8FBFF36F8F01F0DCF818B1044917
:103E90004FF080500860002080F3118810BD0000B2
:103EA00004ED00E030B59DB04C216846FCF7F6FA11
:103EB000202113A8FCF7F2FA0220FCF767FD2D4938
:103EC00000242D480A6822F001020A600A6802688C
:103ED00042F440420260026802F440421B920268CF
:103EE0009204FCD5254A136843F00203136012685C
:103EF00002F002021B92026842F440420260026831
:103F00000A6842F001020A60096801F001011B9190
:103F100001688904FCD50220009040250495012108
:103F2000039104220B923C23CDE90904CDE90C3026
:103F30000FAB0E900C2183E8130068461294FDF736
:103F400051FC08B172B6FEE708221A95CDE9162594
:103F5000D30113AA3F200321CDE9185382E81300AF
:103F6000042113A8FDF712FA002801D072B6FEE76B
:103F70001DB030BD2C04005818480258F4440258B3
:103F80002C48F0B52C4A016841F4700101601068BA
:103F900000F00F00072804D2106820F00F00C01DA9
:103FA000106026490020254C10340B68244D43F046
:103FB00001030B6020600B682B400B60136803F05B
:103FC0000F03072B04D9136823F00F03DB1D1360C5
:103FD0001A4C1C4A18341C4B261D371D2060174CE8
:103FE0001A4D28343060261D3860371D23603B1D74
:103FF00035601C1D3A60251D2E1D1860331D226082
:104000002860326018600A680C4B114C22F4802240
:1040100060330A60186020686FF30F00B0F1005F32
:1040200003D20C490120C1F8080143F2D2000A4929
:104030000860F0BD88ED00E0002000520044025806
:104040007FEDF6EA80020101000202020000FF019A
:104050000010005C00800051004000520148FEF753
:10406000AEBB00003C0400242DE9F047274B4FF085
:10407000804A274D02689842264E274F274C09D088
:10408000504507D0A84205D0B04203D0B84201D075
:10409000A04205D1D1F804C022F070024CEA02021D
:1040A000DFF87CC0DFF87C809842DFF87C900FD08E
:1040B00050450DD0A8420BD0B04209D0B84207D02D
:1040C000A04205D0604503D0404501D0484503D10A
:1040D000CD6822F440722A434D6922F080022A43BF
:1040E000026098428A68C2620A68826207D0A0426F
:1040F00005D0604503D0404501D0484501D109694C
:10410000016301214161BDE8F0870000000001402A
:104110000004004000080040000C00400004014082
:1041200000400140004401400048014010B5046ACD
:10413000042301F01F018B409C4304628A40016A02
:104140001143016210BD42EA032283680A4323F44B
:104150007F410A4382607047034B82681A400A43DA
:1041600042F00701816070478FFFCFFF2DE9F04FCC
:10417000026ADFF88880DFF8889022F00102DFF819
:1041800084A0DFF884B0214F0262DFF884C0066AA1
:104190004268836926F002060D68B8428C6803EA1B
:1041A0000C0323F0030344EA060445EA030507D0A1
:1041B000404505D0484503D0504501D0584505D16C
:1041C000CB6824F00804234323F00404B84207D04A
:1041D000404505D0484503D0504501D0584505D14C
:1041E00022F44076D1E9053233431A4342608561B7
:1041F000496841630462BDE8F08F0000000401409B
:1042000000400140004401400048014000000140DE
:104210008FFFFEFFF0B5026A1E4E1F4C22F0100207
:10422000DFF878E00262056A4368826925F02005BC
:10423000D1F808C0A0420F6802EA060222F44072D8
:1042400045EA0C1542EA072201D0704506D1CE6836
:1042500025F0800545EA061525F04005A0420AD064
:10426000704508D00E4CA04205D00E4CA04202D0A2
:104270000D4CA04207D1D1E9054623F4406343EA3F
:10428000840343EA8603436082614968816305626F
:10429000F0BD0000FF8FFFFE000001400004014060
:1042A000004001400044014000480140F0B5026A6E
:1042B0001E4F1F4E22F48072DFF878E00262056A1A
:1042C0004368C26925F40075D1F808C0B0420C6893
:1042D00002EA070222F0030245EA0C2544EA02043E
:1042E00001D0704506D1CF6825F4006242EA07226A
:1042F00022F48065B0420AD0704508D00E4A904240
:1043000005D00E4A904202D00D4A904207D123F4C4
:104310004052D1E9053642EA031242EA06134360ED
:10432000C4614968C1630562F0BD00008FFFFEFFF4
:1043300000000140000401400040014000440140F1
:1043400000480140F0B5026A174B164F22F4805224
:1043500098420262046A4268C36924F400548E6879
:104360000D6803EA070323F4407344EA063443EA82
:1043700005230BD00D4DA84208D00D4DA84205D005
:104380000C4DA84202D00C4DA84204D14D6922F434
:10439000804242EA85124260C36149680164046256
:1043A000F0BD0000FF8FFFFE00000140000401404F
:1043B000004001400044014000480140F0B5026A5D
:1043C000DFF854C022F480320262056A4268446D0C
:1043D00025F400350E896045104F0B6804EA070488
:1043E00045EA064543EA04030BD00D4CA04208D031
:1043F0000C4CA04205D00C4CA04202D00B4CA04269
:1044000004D14C6922F4803242EA042242604365BE
:10441000496881650562F0BD000001408FFFFEFF25
:1044200000040140004001400044014000480140B8
:10443000F0B5026ADFF854C022F480120262046A06
:104440004268436D24F400140E896045104F0D68D6
:1044500003EA070344EA065443EA05230BD00D4D53
:10446000A84208D00C4DA84205D00C4DA84202D05D
:104470000B4DA84204D14D6922F4802242EA8522E4
:10448000426043654968C1650462F0BD00000140B7
:10449000FF8FFFFE00040140004001400044014046
:1044A0000048014010B5036A046A23F00A0324F0AF
:1044B0000104046284690B4324F0F00141EA021113
:1044C0008161036210BD10B5036A23F0100303621B
:1044D0008369046A23F4704324F0A00443EA02329F
:1044E000826144EA0111016210BDFEE7090700285C
:1044F0004FEA116104DB00F1E02080F800147047FE
:1045000000F00F0000F1E02080F8141D7047FCF768
:1045100069B9000010B5034800240421FDF7DEFF4F
:10452000204610BDF00300242DE9F341174D4FF450
:1045300000640022884621462846FCF747F9A60079
:10454000284600223146FCF741F911486423012234
:104550006946FDF7F6FD0122074631462846FCF77D
:1045600035F90B4801224FF4FA734146FDF7FEFC82
:10457000C619214601222846FCF728F9002E03DD42
:104580004FF0FF30BDE8FC810020FBE7001002582F
:10459000680300242DE9F0410F4E4FF4006500221E
:1045A0000C46074629463046FCF710F9A2B20B48E4
:1045B0004FF4FA733946FDF7D9FC01220446294627
:1045C0003046FCF703F9002C03DD4FF0FF30BDE867
:1045D000F0810020FBE7000000100258680300246F
:1045E0002DE9F0410E4E4FF4006500220C460746BF
:1045F00029463046FCF7EAF8A2B20A486423394655
:10460000FDF79FFD0122044629463046FCF7DEF8FF
:10461000002C03DD4FF0FF30BDE8F0810020FBE708
:1046200000100258680300242DE9F743194E4FF497
:10463000006815468946002241463046FCF7C6F818
:104640004FF40057304600223946FCF7BFF81248B5
:10465000642301226946FDF774FD012204463946B0
:104660003046FCF7B3F83DB1AAB20B484FF4FA73E9
:104670004946FDF766FD0444414601223046FCF7F9
:10468000A5F8002C03DD4FF0FF30BDE8FE830020CD
:10469000FBE700000010025868030024FCF7B0F8A4
:1046A000FFF700FCFEF7E4FAFEF73CFBFEF76AFBBF
:1046B00007480421FDF712FF054801684FF46170B7
:1046C0008863FEF785FAFEF7BFFA00F011F8FEE7FF
:1046D000F0030024842801464FF0000000D0C81CDD
:1046E000704710B500B9012000F048FB002010BD54
:1046F00010B500F069FB002010BD7FB50D46416983
:104700000446B0F9080081B1A16971B1FFF7E2FF79
:10471000D4E905122B468DE807002269D4E9001080
:1047200000F065FC039004B070BDFFF7D3FF03A950
:104730002B46CDE90001228AD4E9001092B200F0A4
:1047400029FC012801D00020EDE70398EBE70000E9
:104750002DE9F041184C0F460546E6682068001D1B
:1047600000F042FA38B922680121206992F82C2021
:10477000914088432061681C07D137B12168BDE8AA
:10478000F0410E48091D00F075BA20683544B54265
:104790004560216805D2A06B091DBDE8F04100F01D
:1047A00051BA606B091D00F04DFAA06A854200D233
:1047B000A562BDE8F0810000180000246405002413
:1047C0002DE9F041054600F061FA2E4C2E4FA0680D
:1047D000401CA060206810B1606940B32DE02560E6
:1047E000A068012829D1002606EB860007EB80008F
:1047F00000F01AFA761C072EF6D323488C3000F00E
:1048000013FA2148A03000F00FFA1F48B43000F02E
:104810000BFA1D48C83000F007FA1B48DC3000F0E6
:1048200003FA19488C3060631430A06305E0E86A2D
:104830002168C96A814200D825600120616A491C4B
:104840006162E96A226988401043206101EB8100BE
:10485000291D07EB800000F00DFA00F037FA6069BF
:1048600000280CD02068E96AC06A884207D207494C
:104870004FF080500860BFF34F8FBFF36F8FBDE8DC
:10488000F0810000180000248804002404ED00E0FA
:1048900010B5044690F8510058B101280CD00228F8
:1048A0000FD0502080F31188BFF34F8FBFF36F8F6D
:1048B000FEE7206B00F01EFA2046BDE8104000F035
:1048C00019BA10BD11484FF4705110B5420706D007
:1048D0000E49C01D20F00700411AC1F570510C4C63
:1048E000002301440839A4F1180221F00701C4E9AA
:1048F00000030C1A11604B600B60C0E90014946057
:104900004FF000415460516110BD00007805002453
:104910006C000024144E4FF08058144CDFF8509077
:10492000A6F1C80712E000BF00F0B0F9F068C56852
:10493000281D00F059F9A068401EA0606068401E64
:10494000606000F0C3F92846FFF7A2FF6068002806
:10495000EAD138680128F9D9C9F80080BFF34F8F30
:10496000BFF36F8FF2E70000500500241800002409
:1049700004ED00E02DE9F0479A4681466FF003030D
:10498000DDE9098403EB8202089E206B104420F0CD
:104990000707780707D0502080F31188BFF34F8FA7
:1049A000BFF36F8FFEE74FF0000561B100202318C1
:1049B0000A5C83F834200A5C12B1401C1028F6D33C
:1049C00084F8435001E084F83450072E00D30626C3
:1049D000E662201DC4E9116500F031F904F1180008
:1049E00000F02DF9E564C6F10700A06184F850508D
:1049F0005246246149463846646200F0C1F8B8F175
:104A0000000F206001D0C8F80040BDE8F08700002A
:104A100030B5114900E011460A688242FBD34B6869
:104A20005C18844203D14468084623444B604368C1
:104A30001D18954209D1084C183C2468A24209D09F
:104A400052681A4442600A6812680260814200D0CB
:104A5000086030BD0460F9E76C0000240648416B33
:104A6000096829B1416BC968C968496881627047A2
:104A70004FF0FF31FAE700001800002408484068B2
:104A8000401C4FF0500080F3118804D0BFF34F8FCB
:104A9000BFF36F8FFEE7BFF34F8FBFF36F8FFEE75C
:104AA000740000242DE9F0410027044600F0C2F90B
:104AB000324E306808B9FFF705FF706904424ED1E5
:104AC000C4B3083460070ED004F00700C0F108003A
:104AD0000444600707D0502080F31188BFF34F8F44
:104AE000BFF36F8FFEE72CB37068844237D823483A
:104AF000183001460D6801E028460D466968A1425C
:104B000002D229680029F7D131688D4227D0076881
:104B10002968016008376868011B10290FD9281916
:104B2000420708D0502080F31188BFF34F8FBFF3A6
:104B30006F8FFEE713E041606C60FFF769FF696803
:104B40007068401A7060B268904200D2B060002075
:104B500072691143C5E90001F068401CF06000F083
:104B6000D7FA780707D0502080F31188BFF34F8F12
:104B7000BFF36F8FFEE73846BDE8F0815400002494
:104B800070B5041F094E231F4FF0807521F00101FD
:104B900025601C1F1960A0F120010B1F26604438FE
:104BA0000A606FF002051D6070BD00007D4A0008BC
:104BB00030B444680369A44630BC1846604730B43A
:104BC000D0E90343A44630BC1846604730B484683B
:104BD0000369A44630BC1846604730B404690568D0
:104BE0002046AC4630BC6047D0E9013201699A608A
:104BF000D0E901235A604A68824201D182684A6042
:104C0000002202610868401E0860086870470000C2
:104C100010B5044C8023046004F154000860136054
:104C200010BD0000140100244FF0FF3300F1080113
:104C30000022C0E901130260C160016170470021D8
:104C40000161704730B50B685A1C02D000F10802B0
:104C500002E0026904E02246546825689D42FAD9C0
:104C600053684B6099608A60516008610168491C13
:104C7000016030BD42684A6093688B6093685960F8
:104C8000916008610168491C01607047502080F301
:104C90001188BFF34F8FBFF36F8F0A494868401CDC
:104CA000486001280CD10848006810F0FF0F07D0B9
:104CB000502080F31188BFF34F8FBFF36F8FFEE753
:104CC000704700007400002404ED00E008494868C3
:104CD00028B1401E486001D180F3118870475020F0
:104CE00080F31188BFF34F8FBFF36F8FFEE7000093
:104CF0007400002470B500282AD0164DA0F10804D5
:104D000061686869014207D1502080F31188BFF3C0
:104D10004F8FBFF36F8FFEE722683AB1502080F3C8
:104D20001188BFF34F8FBFF36F8FFEE78143616040
:104D300000F080F860686968084468602046FFF702
:104D400067FE2869401C2861BDE8704000F0E0B9AA
:104D500070BD0000540000244FF0E02000210161EC
:104D60004FF47A728161072303490968B1FBF2F1BC
:104D7000491E41610361704710000024020010B514
:104D800014D00F48006B38B1502080F31188BFF366
:104D90004F8FBFF36F8FFEE700F04CF800211046F5
:104DA000FFF7D6FC00F0B4F9002807D105494FF011
:104DB00080500860BFF34F8FBFF36F8F10BD0000AE
:104DC0001800002404ED00E010B586B0002405AA08
:104DD00004A9039403A80494FFF71AFFDDE9030173
:104DE00000940023CDE9011010480EA1059A00F0AF
:104DF000FEF80F490028C86211D0502080F31188B6
:104E0000BFF34F8FBFF36F8F01224FF0FF308862E7
:104E10004A61CC6006B0BDE8104000F041B806B071
:104E200010BD000049444C45000000001549000831
:104E3000180000240248016B491C01637047000000
:104E4000180000241448016B11B10121C1617047A1
:104E50000021C16111490269B2FA82F2C2F11F0256
:104E600002EB820251F822306BB101EB820101F1B9
:104E700008034A6852684A609A4201D152684A60FF
:104E8000D16801607047502080F31188BFF34F8FC5
:104E9000BFF36F8FFEE70000180000248804002491
:104EA00037481CB5374902688A4207D1502080F341
:104EB0001188BFF34F8FBFF36F8FFEE73149006852
:104EC000491E884207D1502080F31188BFF34F8FCD
:104ED000BFF36F8FFEE72C49FF200A78019208701C
:104EE00008788DF800009DF800209DF8000002F081
:104EF000F002824207D0502080F31188BFF34F8F19
:104F0000BFF36F8FFEE79DF8002007201F4C02F0D3
:104F100050022270A06005E09DF8002052008DF83C
:104F20000020401E9DF800201206F5D40328A06042
:104F300007D0502080F31188BFF34F8FBFF36F8FDE
:104F4000FEE74FF44070A060019808700C482030D4
:104F5000016841F470010160016841F07041016035
:104F6000FFF7FAFE00206060FBF70AFA08480168C4
:104F700041F040410160FBF7EFF900201CBD00004B
:104F800000ED00E071C20F4100E400E07400002475
:104F900034EF00E02DE9FF5F994616468A468346C6
:104FA0009000DDE90E87FFF77DFD05001CD0542041
:104FB000FFF778FD040014D00020256384F8510029
:104FC0004B46CDE90087CDE902403246514658466E
:104FD000FFF7D0FC2046FFF7F3FB012004B0BDE84B
:104FE000F09F2846FFF786FE4FF0FF30F6E7F0B55A
:104FF00085B0DDE90B740A9DA7B1DCB154262763A7
:10500000022684F85160002703970DF1100C0095DB
:10501000CDE901C4FFF7AEFC2046FFF7D1FB0498B1
:1050200005B0F0BD502080F31188BFF34F8FBFF360
:105030006F8FFEE7502080F31188BFF34F8FBFF3CF
:105040006F8FFEE72DE9F0412F4C206B002728B130
:10505000A069401CA0613846BDE8F081E668761C76
:10506000E66013D1606B006838B1502080F311887E
:10507000BFF34F8FBFF36F8FFEE7606BA16B616370
:10508000A063206A401C2062FFF7E8FCDFF87C8008
:10509000A06A864209D3606B0068A0B1606BC068EB
:1050A000C5686868864211D2A0622068C06A00EBB9
:1050B000800158F82100012800D90127E069002863
:1050C000C9D00127C7E74FF0FF30EDE7281DFFF7F4
:1050D0008BFDA86A18B105F11800FFF785FDE96A94
:1050E0000120226988401043206101EB810108EB17
:1050F0008100291DFFF7BEFD2068E96AC06A814270
:10510000C9D30127C7E70000180000248804002441
:105110002DE9F0472C4D286B0024264638B1FFF7C7
:10512000B5FD286B401E2863286B40B147E0502036
:1051300080F31188BFF34F8FBFF36F8FFEE7234FCC
:105140000120A968D9B3A7F1B40980463868E8B14D
:10515000F868C46804F11800FFF746FD201DFFF74A
:1051600043FDE16A2A6908FA01F01043286101EB66
:10517000810109EB8100211DFFF77CFD2968E06AB0
:10518000C96A8842E2D3C5F81C80DFE70CB1FFF79B
:1051900065FCAC6944B14746FFF754FF00B1EF61CD
:1051A000641EF9D10020A861E86940B108490126D0
:1051B0004FF080500860BFF34F8FBFF36F8FFFF742
:1051C00085FD3046BDE8F087180000243C0500242A
:1051D00004ED00E04FF04070E1EE100A704700006F
:1051E0000C5200085D3E00080000000000000000B6
:1051F000800000000000000000000000000000002F
:1052000001020304010203040607080964656661DC
:10521000756C745461736B003852000800000024F0
:1052200014010000D40200084C53000814010024AB
:105230000C4C0000F002000800000000010000001B
:1052400010000000000000000090D0030090D00388
:10525000000000000000000000000000000000004E
:10526000000000000000000000000000000000003E
:10527000000000000000000000000000000000002E
:10528000000000000000000000000000000000001E
:10529000000000000000000000000000000000000E
:1052A00000000000000000000000000000000000FE
:1052B000AAAAAAAA00000000F7350008A731000832
:1052C000A93A00082D320008AD310008773B0008EC
:1052D0004D350008613D0008553500087D3B00084C
:1052E000AD3200088D340008E5330008453400086D
:1052F0001135000865350008013E0008BD3500087D
:10530000CD35000840000000C00000008000000013
:10531000000000002000000060000000E00000002D
:10532000A0000000FFFF000000000000154500087D
:105330000000000000000000294600082945000880
:0C534000E1450008954500080F450008F5
:040000050800029954
:00000001FF
