:020000040800F2
:10000000B0140020390300080B1A0008D5180008A6
:10001000091A0008AB050008D920000800000000FC
:10002000000000000000000000000000790200084D
:10003000AD05000800000000D50200080D1A0008F8
:100040005303000853030008530300085303000838
:100050005303000853030008530300085303000828
:100060005303000853030008530300085303000818
:100070005303000853030008530300085303000808
:1000800053030008530300085303000853030008F8
:1000900053030008530300085303000853030008E8
:1000A00053030008530300085303000853030008D8
:1000B00053030008530300085303000853030008C8
:1000C00053030008530300085303000853030008B8
:1000D00053030008530300085303000853030008A8
:1000E000AF0500085303000853030008530300083A
:1000F0005303000853030008530300085303000888
:100100005303000853030008530300085303000877
:100110005303000853030008B11A000853030008F2
:100120005303000853030008530300085303000857
:100130005303000853030008530300085303000847
:100140005303000853030008530300085303000837
:100150005303000853030008530300085303000827
:100160005303000853030008530300085303000817
:100170005303000853030008530300085303000807
:1001800053030008530300085303000853030008F7
:100190005303000800000000530300085303000845
:1001A00053030008530300085303000853030008D7
:1001B00053030008530300085303000853030008C7
:1001C00053030008530300085303000853030008B7
:1001D000530300085303000800F002F800F03CF855
:1001E0000AA090E8000C82448344AAF10107DA4592
:1001F00001D100F031F8AFF2090EBAE80F0013F0A8
:10020000010F18BFFB1A43F00103184778290000BB
:1002100098290000103A24BF78C878C1FAD852074C
:1002200024BF30C830C144BF04680C607047000070
:100230000023002400250026103A28BF78C1FBD8EF
:10024000520728BF30C148BF0B6070471FB502F08E
:1002500063FC1FBD10B510BD00F061F91146FFF73A
:10026000F5FF01F04AFF00F07FF903B4FFF7F2FF5A
:1002700003BC00F087F900002C4B19680868B0E84F
:10028000F04F80F30988BFF36F8F4FF0000080F3C9
:10029000118870470000000008480068006880F37B
:1002A00008884FF0000080F3148862B661B6BFF38F
:1002B0004F8FBFF36F8F00DF00BF00BF08ED00E07E
:1002C000DFF80C00016841F470010160704700BF65
:1002D00088ED00E0EFF30980BFF36F8F134B1A68CE
:1002E0001EF0100F08BF20ED108A20E9F04F1060BB
:1002F00009B44FF0500080F31188BFF34F8FBFF364
:100300006F8F02F06DFA4FF0000080F3118809BC86
:1003100019680868B0E8F04F1EF0100F08BFB0EC85
:10032000108A80F30988BFF36F8F70471400002094
:10033000EFF30580704700000948804709480047EF
:10034000FEE7FEE7FEE7FEE7FEE7FEE7FEE7FEE785
:10035000FEE7FEE704480549054A064B70470000E2
:10036000A11A0008D9010008B00E0020B014002026
:10037000B0100020B010002053EA020C00F0698099
:100380002DE9F04B4FF00006002B1FBFB3FA83F5A9
:1003900003FA05F424FA05F65E4012BF1643B2FADA
:1003A00082F502FA05F4C5F120051EBF22FA05FC0C
:1003B00044EA0C04203556EA044C4FEA144418BFB2
:1003C000641C4FF000084FF00009904271EB030CE1
:1003D00039D3002919BFB1FA81F701FA07F6B0FA4B
:1003E00080F700FA07F6C7F120071EBF20FA07FCC6
:1003F00046EA0C062037B6FBF4FCA7EB0507103FD6
:1004000007F01F0BCBF120060CFA0BFB2CFA06F6BB
:1004100044BFB3460026202FA4BF5E464FF0000B1A
:100420005BEA060C08BF4FF0010B19EB0B09ABFBA5
:10043000027C48EB0608C01B06FB02CC0BFB03CC7E
:1004400071EB0C01C1E70B46024641464846BDE848
:10045000F08B13B54FF000004FF00001AFF30080B8
:10046000BDE81C40704710B5203AC0F00B80B1E8E1
:100470001850203AA0E81850B1E81850A0E81850D9
:10048000BFF4F5AF5FEA027C24BFB1E81850A0E8E2
:10049000185044BF18C918C0BDE810405FEA827CFC
:1004A00024BF51F8043B40F8043B08BF7047D20713
:1004B00028BF31F8023B48BF11F8012B28BF20F8B4
:1004C000023B48BF00F8012B70474FF0000200B517
:1004D000134694469646203922BFA0E80C50A0E867
:1004E0000C50B1F12001BFF4F7AF090728BFA0E815
:1004F0000C5048BF0CC05DF804EB890028BF40F8E1
:10050000042B08BF704748BF20F8022B11F0804F22
:1005100018BF00F8012B7047704770477047754649
:1005200000F02CF8AE4605006946534620F007005F
:10053000854618B020B5FFF70DFFBDE820404FF00D
:1005400000064FF000074FF000084FF0000B21F0BD
:100550000701AC46ACE8C009ACE8C009ACE8C0098A
:10056000ACE8C0098D46704710B50446AFF3008073
:100570002046BDE81040FFF778BE000000487047F5
:100580004C0E002001491820ABBEFEE726000200F9
:1005900070474FF090444FF4FA752021204600F048
:1005A0003DF9284601F0BCFDF7E7FEE770474FF440
:1005B000005000F003B872B6FEE77047044910B56A
:1005C0000A68024202D00860FFF7F7FF10BD000082
:1005D000140401402DE9F04FDFF82092002301269A
:1005E0000324A9F1040B85B00F2709F1040AABF12C
:1005F000040EFAE006FA03F52A407CD091F804C014
:100600000CF0030CBCF1010F02D0BCF1020F26D19B
:10061000D0F808C0CDF800C04FEA430C04FA0CF83B
:10062000CDF810C0DDF800C02CEA080CCDF800C0F1
:10063000D1F80C80DDF810C008FA0CF8DDF800C025
:1006400048EA0C08C0F80880D0F804C02CEA050C71
:100650000D79C5F300159D4045EA0C0545600D79FF
:10066000ED43AD070ED0C5684FEA430804FA08FC15
:1006700025EA0C05D1F808C00CFA08FC4CEA050C78
:10068000C0F80CC00D7905F00305022D16D1DD0868
:1006900000EB850CCDF808C0DCF820805D074FEA40
:1006A000D56C07FA0CF528EA05080D6905FA0CF572
:1006B000DDF808C045EA0805CCF8205005684FEA87
:1006C000430CCDF808C004FA0CFC25EA0C0591F89F
:1006D00004C00CF00308DDF808C008FA0CF848EA7A
:1006E0000508C0F800804D6815F4403F7CD0444DAB
:1006F000D5F860C000E077E04CF0010CC5F860C0B0
:100700002D6E23F0030C05F0010500953D4D654469
:100710000295AD684FEA837C4FEA1C7807FA08FC23
:1007200025EA0C05B0F1904F06D0DFF8DCC060453B
:1007300005D14FF0010C20E04FF0000C1DE0DFF878
:10074000CCC0604502D14FF0020C16E0DFF8C0C00B
:10075000604502D14FF0030C0FE0DFF8B8C06045F0
:1007600002D14FF0040C08E0DFF8ACC0604502D1C4
:100770004FF0050C01E04FF0060C0CFA08FC4CEAB7
:10078000050C029DC5F808C0D9F80050CC46D1F838
:10079000048095435FEAC82800D51543CCF8005083
:1007A000DAF80050D446D1F8048095435FEA8828EF
:1007B00000D51543CCF80050DBF80050DC46D1F8EA
:1007C000048095435FEA883800D51543CCF8005083
:1007D000DEF80050F446D1F8048095435FEAC8384B
:1007E00000D51543CCF800505B1C0A6832FA03F5BB
:1007F0007FF400AF05B0BDE8F08F000008040140B1
:1008000000100240000001400004004800080048B9
:10081000000C00480010004800140048426921EA1A
:1008200002030A4043EA0241816170470AB18161D3
:10083000704781627047000001488068704700007F
:1008400004000020024881684268114481607047BA
:100850000400002010B50024032000F09BF80F20B6
:1008600000F008F808B1012401E000F047F8204644
:1008700010BD000030B505461B4887B0816D41F0C2
:1008800010018165806D06A900F01000009001A89C
:1008900000F066FB00F084FB1449154AB0FBF1F14F
:1008A0001448491E0260416040F2E7320021C0E96D
:1008B0000321816000F0D9FD040012D10D4800F041
:1008C00007FE04000DD1362000F036F8102D07D2B7
:1008D00000222946362000F03DF80748056000E078
:1008E000012407B0204630BD0010024040420F00F6
:1008F0000010004010010020040000200D4808B541
:10090000016E41F001010166016E01F001010091EB
:10091000816D41F080518165806D002200F0805032
:1009200000900F21901E00F015F8BDE8084000F07F
:10093000A1B8000000100240002809DB00F01F02EF
:10094000012191404009800000F1E020C0F8001131
:1009500070470000F0B40E4B1B680C46C3F3022333
:10096000C3F10705042D00D90425191D072901D25B
:10097000002300E0DB1E012606FA05F1491E214096
:1009800099409E40761E16403143F0BC01F0A5BB55
:100990000CED00E0064900F0070208684FF6FF037F
:1009A000184040EA0220034A1043086070470000E4
:1009B0000CED00E00000FA052B492C4B0A683221AF
:1009C0004A432B4940B1B0F5007F086829D020F494
:1009D000C06040F480602CE00868C0F34120022829
:1009E00004D051F8800F20F4807022E0D1F880000C
:1009F00020F48070C1F88000086820F4C06040F4E2
:100A000000700860B2FBF3F0401C00E0401E4A6931
:100A1000520501D50028F9D1486940050AD50320BF
:100A20007047C0F34120022806D051F8800F40F4EF
:100A30008070086000207047D1F8800040F480701A
:100A4000C1F88000086820F4C06040F400700860BD
:100A5000B2FBF3F0401C00E0401E4A695205DBD5B2
:100A60000028F9D1D8E700001000002040420F0014
:100A7000007000400248816841F480418160704705
:100A8000007000402DE9F843044600680026BB4D85
:100A900000035ED5A86D0027C00008D4A86D40F003
:100AA0008050A865A86D012700F080500090DFF805
:100AB000D092D9F8001041F48071C9F80010FFF706
:100AC000BBFE804606E000BFFFF7B6FEA0EB0800C5
:100AD00002282BD8D9F80000C005F5D5D5F890002C
:100AE00010F4407014D0216D814211D0D5F89000DF
:100AF000D5F8901020F4407041F48031C5F8901082
:100B0000D5F8901021F48031C5F89010C5F8900008
:100B1000C00711D0FFF790FE804641F2883907E008
:100B2000FFF78AFEA0EB0801494501D903260BE037
:100B3000D5F890008007F3D5D5F89000216D20F40A
:100B400040700843C5F890001FB1A86D20F0805098
:100B5000A8652078C00707D0D5F88800616820F024
:100B600003000843C5F888002078800707D5D5F82A
:100B70008800A16820F00C000843C5F888002078A0
:100B8000400707D5D5F88800E16820F03000084319
:100B9000C5F888002078000707D5D5F888002169B6
:100BA00020F0C0000843C5F888002078C00607D5AB
:100BB000D5F88800616920F440700843C5F88800C2
:100BC0002078800607D5D5F88800A16920F4406018
:100BD0000843C5F888002078400607D5D5F8880076
:100BE000E16920F440500843C5F8880020780006E9
:100BF00007D5D5F88800216A20F440400843C5F89D
:100C000088002088C00507D5D5F88800616A20F4DF
:100C100040300843C5F888002068800307D5D5F820
:100C20009C00A16A20F003000843C5F89C002088BE
:100C3000800507D5D5F88800E16A20F440200843F4
:100C4000C5F88800208840050FD5D5F88800216BAD
:100C500020F440100843C5F88800206BB0F5801FD1
:100C600003D1E86840F48010E860208800050FD5C3
:100C7000D5F88800616B20F440000843C5F888006F
:100C8000606BB0F5800F03D1E86840F48010E86035
:100C90002088C0040FD5D5F88800A16B20F04070E3
:100CA0000843C5F88800A06BB0F1807F03D1E868E5
:100CB00040F48010E86020884FF0006180040ED579
:100CC000D5F88800E26B20F040601043C5F888003A
:100CD000E06B884203D1E86840F48010E860208827
:100CE00040040ED5D5F88800226C20F040601043F7
:100CF000C5F88800206C884203D1E86840F4801071
:100D0000E860208800040FD5D5F88800616C20F0D9
:100D100040500843C5F88800606CB0F1805F03D193
:100D2000E86840F48030E8602068C0030FD5D5F84B
:100D30008800A16C20F040400843C5F88800A06CF2
:100D4000B0F1804F03D1E86840F48030E86020685B
:100D500040030FD5D5F89C00E16C20F44010084307
:100D6000C5F89C00E06CB0F5001F03D1E86840F4C2
:100D70008010E8603046BDE8F883000000100240B3
:100D8000007000402DE9F0470E4605004FF00007C7
:100D900025D0DFF8AC81D8F8000000F00F00B04299
:100DA0000CD2D8F8001021F00F013143C8F8001020
:100DB000D8F8000000F00F00B04210D12968614C53
:100DC000C80741F2883A5AD06868DFF87C91032856
:100DD00008D0022820682DD0400500282CDB0120F7
:100DE000BDE8F08720688001F9D5E06800F00302D3
:100DF000E068C0F30310401C032A19D0534A00BF17
:100E0000B2FBF0F0E268C2F306225043E268C2F39C
:100E10004162521C5200B0FBF2F0484517D9A0685D
:100E200010F0F00F0CD0880711D5A86840B10EE083
:100E3000474AE5E78003D0E700F0D6F8484506D9F1
:100E4000A06820F0F00040F08000A0608027A0683B
:100E5000696820F003000843A060FFF7EDFC8146BD
:100E600006E000BFFFF7E8FCA0EB090151453AD8C6
:100E7000A068696800F00C00B0EB810FF2D128681F
:100E8000810714D5400703D5A06840F4E060A06056
:100E90002878000705D5A06820F4605040F4E06091
:100EA000A060A068A96820F0F000084304E0802F4B
:100EB00003D1A06820F0F000A060D8F800104046F0
:100EC00001F00F01B14216D9016821F00F01314341
:100ED0000160FFF7B1FC074607E000BFFFF7ACFC7D
:100EE000C11B514501D903207AE7D8F8000000F072
:100EF0000F00B042F2D12878400705D5A068E96814
:100F000020F4E0600843A0602878000706D5A068B8
:100F1000296920F4605040EAC100A06000F064F844
:100F2000A1680C4AC1F30311515C01F01F01C840D4
:100F30000949086009480068BDE8F047FFF79ABC16
:100F4000002002400010024000B4C4040024F40059
:100F500000366E01602B0008100000200400002005
:100F60000F2202600C4A936803F003034360936806
:100F700003F0F0038360936803F4E063C360926856
:100F80004FF4E06303EAD20202610448006800F013
:100F90000F0008607047000000100240002002406F
:100FA0000548064900688968054AC1F30221515C79
:100FB00001F01F01C84070471000002000100240DF
:100FC000702B00080548064900688968054AC1F386
:100FD000C221515C01F01F01C84070471000002081
:100FE00000100240702B0008184910B58868C0F343
:100FF00081021748012A0BD08A68164BC2F381027E
:10100000022A06D08A68C2F38102032A03D0002094
:1010100010BD184610BDCA6802F00304CA68C2F3C6
:101020000312521C032C02D0B0FBF2F001E0B3FB20
:10103000F2F0CA68C968C2F306225043C1F34161A5
:10104000491C4900B0FBF1F010BD00000010024047
:101050000024F40000366E012DE9F84304007AD034
:101060002078F84DC00747D0A868E96800F00C0068
:1010700001F003010C2802D0082817D001E0032951
:1010800014D06068B0F5803F17D0B0F5A02F286865
:1010900017D020F480302860286820F48020286051
:1010A0006068E0B1FFF7C8FB064614E028688003DB
:1010B00022D560680028D2D01EE0286840F4803035
:1010C000EDE740F480202860F7E700BFFFF7B4FBAE
:1010D000801B642870D828688003F7D50CE0FFF7E0
:1010E000ABFB064605E000BFFFF7A6FB801B6428AC
:1010F000F0D828688003F7D4207880074CD5A868FA
:10110000E96800F00C0001F003010C2802D004286B
:101110000DD001E002290AD0E068002828682BD011
:1011200040F480702860FFF787FB064619E02868C6
:10113000400502D5E068002891D06868217C20F045
:10114000FE4040EA01606860BF480068FFF792FB1C
:10115000002800D120E072E1FFF76EFB801B02281F
:10116000B8D828684005F7D56868217C20F0FE4093
:1011700040EA016068600FE020F480702860FFF7AB
:101180005BFB064605E000BFFFF756FB801B02280D
:10119000A0D828684005F7D42078000729D56069D1
:1011A0000028D5F8940013D040F00100C5F8940051
:1011B000FFF742FB064606E090E000BFFFF73CFB6E
:1011C000801B022886D8D5F894008007F6D510E059
:1011D00020F00100C5F89400FFF72EFB064604E05E
:1011E000FFF72AFB801B022878D8D5F894008007E7
:1011F000F6D42078400761D5A86D0026C00008D439
:10120000A86D40F08050A865A86D012600F08050C0
:1012100000908E480168C90511D40168804641F4E8
:1012200080710160FFF708FB074604E0FFF704FB4D
:10123000C01B022852D8D8F80000C005F6D5A06817
:10124000012815D00528D5F8900016D020F001000F
:10125000C5F89000D5F8900020F00400C5F8900083
:10126000A06841F28838B8B1FFF7E6FA07460EE009
:10127000D5F8900040F00100F0E740F00400C5F818
:101280009000F5E7FFF7D8FAC11B414526D8D5F8FD
:1012900090008007F6D50CE0FFF7CEFA074604E091
:1012A000FFF7CAFAC11B414518D8D5F8900080074E
:1012B000F6D41EB1A86D20F08050A8652078800675
:1012C00029D5A0690028D5F8980013D040F0010076
:1012D000C5F89800FFF7B0FA064606E075E000BFD3
:1012E000FFF7AAFA801B02286FD8D5F8980080076C
:1012F000F6D510E020F00100C5F89800FFF79CFA41
:10130000064604E0FFF798FA801B02285DD8D5F85E
:1013100098008007F6D4E069F0B3A968C1F38101B1
:1013200003295DD00228286820F08070286003D04F
:10133000FFF782FA04464BE0FFF77EFA064604E028
:10134000FFF77AFA801B02283FD828688001F7D47B
:10135000F4E908016FF00F0202EB01110843218A42
:101360005204490802EB4151A26841EA02210843B4
:10137000217D4FF07E42490802EB41610843217B09
:1013800040EAC160E968324A11400843E8602868D1
:1013900040F08070286000E05EE0E86840F0807017
:1013A000E860FFF749FA044605E000BFFFF744FA9A
:1013B000001B022809D828688001F7D54CE000BF3F
:1013C000FFF73AFA001B022802D90320BDE8F88390
:1013D00028688001F4D4E8681E490840E8603BE0D2
:1013E0000128F3D0E868226A00F00301914226D177
:1013F000616A00F0F0020901103991421FD1A26A1E
:1014000000F4FE41B1EB022F19D194F82C2000F02A
:101410007841B1EBC26F12D1218E00F4C0024908AD
:101420004905A1F50011914209D194F8341000F05A
:10143000C06049084906A1F1007181420CD0012029
:10144000C4E70000001002400400002000700040CB
:101450000C809F01FCFFEEFE0020B7E7704770474D
:101460007047704770477047704710B5040003D04D
:1014700094F83D0010B107E0012010BD002084F871
:101480003C00204600F022F8022084F83D00211D97
:10149000206800F013FB012084F8480084F83E0027
:1014A00084F83F0084F8400084F8410084F842004A
:1014B00084F8430084F8440084F8450084F846002A
:1014C00084F8470084F83D00002010BD70470000FC
:1014D00090F83D10012901D001207047022180F8C9
:1014E0003D100168CA6842F00102CA6000681349F1
:1014F000884214D0B0F1804F11D0114988420ED0EB
:10150000104988420BD01049884208D00F498842C0
:1015100005D00F49884202D00E49884207D1816820
:101520000D4A1140062906D0B1F5803F03D001686D
:1015300041F001010160002070470000002C0140D3
:101540000004004000080040000C0040003401404E
:1015500000400140005001400700010070472DE9A4
:10156000F04104460068C66805694FF00007A90706
:1015700013D5B10711D5F91E01610120207720682C
:1015800080698007204602D0FFF7E8FF04E000F002
:10159000B7F8204600F0B5F82777680716D570072A
:1015A00014D521686FF004000861022020772068BC
:1015B000806910F4407F204602D0FFF7CFFF04E09F
:1015C00000F09EF8204600F09CF82777280715D5F4
:1015D000300713D521686FF00800086104202077D8
:1015E0002068C0698007204602D0FFF7B7FF04E0FB
:1015F00000F086F8204600F084F82777E80616D534
:10160000F00614D521686FF01000086108202077DB
:101610002068C06910F4407F204602D0FFF79EFF8B
:1016200004E000F06DF8204600F06BF82777E8073B
:1016300008D0F00706D021686FF00100086120464D
:1016400000F060F8280601D4A80408D5300606D5B5
:1016500021686FF4025008612046FFF700FFE8059B
:1016600008D5300606D521686FF4807008612046E1
:10167000FFF7F4FE680608D5700606D521686FF0FE
:1016800040000861204600F047F8A80608D5B006DB
:1016900006D521686FF0200008612046FFF7E0FEC4
:1016A000E80208D5F00206D521686FF480100861C1
:1016B0002046FFF7D7FEA80208D5B00206D521685C
:1016C0006FF4001008612046FFF7CBFE680208D5D2
:1016D000700206D521686FF4800008612046FFF78C
:1016E000C2FE28020AD5300208D521686FF4000036
:1016F00008612046BDE8F041FFF7B6BEBDE8F081C5
:101700007047704700680349884201D1FFF79AB8D3
:101710007047000000100040704790F884100129C5
:1017200018D0012180F884102421C0F888100168A5
:101730000A680B6823F001030B6022F000510022BD
:101740004266036819602021C0F8881080F8842060
:10175000104670470220704770B5044690F8840028
:1017600001281DD0012084F884002420C4F88800BA
:1017700020680568026822F0010202602068826821
:1017800022F060620A438260204600F009FA206875
:1017900005602020C4F88800002084F8840070BD13
:1017A000022070BD70B5044690F8840001281DD059
:1017B000012084F884002420C4F88800206805688B
:1017C000026822F0010202602068826822F0604212
:1017D0000A438260204600F0E3F92068056020207B
:1017E000C4F88800002084F8840070BD022070BD19
:1017F00010B5040003D0D4F8880010B107E0012030
:1018000010BD002084F88400204600F027F8242032
:10181000C4F888002068016821F001010160A06A15
:1018200010B1204600F0DEF9204600F0BFFA012892
:10183000E6D02068416821F49041416020688168C9
:1018400021F02A0181602068016841F001010160F6
:101850002046BDE8104000F029BA000010B59CB049
:101860000446142115A8FEF730FE54216846FEF701
:101870002CFE16492068884226D1202000240090A2
:1018800006946846FFF7FEF808B1FEF794FE10488C
:10189000C16D41F00101C165C16D01F001011A91F5
:1018A000C16C41F00101C164C06C15AA00F00100D7
:1018B0001A900C20022182E81300CDE9184015A9E6
:1018C0004FF09040FEF786FE1CB010BD0080004037
:1018D00000100240FEE7000000B585B01422064962
:1018E0006846FEF7C0FD0021684600F028FC034969
:1018F000086005B000BD0000242B00080000002097
:1019000030B587B014216846FEF7DFFD2348C16C6F
:1019100041F00401C164C16C01F004010591C16C86
:1019200041F02001C164C16C01F020010591C16C3E
:1019300041F00101C164C16C01F001010591C16C6C
:1019400041F00201C164C06C4FF0904500F002000C
:101950000590002220212846FEF768FF4FF4005032
:1019600000904FF488100024CDE9010469460C482A
:10197000FEF730FE202000900120CDE901046946E9
:1019800028460394FEF726FE002205212820FEF7B4
:10199000E1FF2820FEF7D0FF07B030BD0010024065
:1019A00000080048174810B5154901604FF4E131AF
:1019B0004160002181600C22C160C0E90412816194
:1019C000016241628162FFF713FF08B1FEF7F3FD88
:1019D00000210C48FFF7E6FE08B1FEF7ECFD002100
:1019E0000848FFF7B9FE08B1FEF7E5FD0548FFF727
:1019F00094FE002803D0BDE81040FEF7DCBD10BD0A
:101A0000008000407C000020FEE7FEE710B550207B
:101A100080F31188BFF34F8FBFF36F8F00F0B4FFD7
:101A200018B104494FF080500860002080F31188FD
:101A300010BD000004ED00E000B593B03821684609
:101A4000FEF743FD14210EA8FEF73FFD0020FEF730
:101A5000B3FF0220C1010391402104910421CDE98B
:101A6000080100905521CDE90A1007900C900D90C7
:101A70006846FFF7F1FA08B172B6FEE70F200E9044
:101A800003200F90002010901190129004210EA8B6
:101A9000FFF778F9002801D072B6FEE713B000BD59
:101AA0000248016841F470010160704788ED00E070
:101AB0000148FFF754BD0000100100202DE9F04F50
:101AC00002682E4B2E4E2F4FDFF8BCC02F4C304DEE
:101AD0004FF0804B98420BD0584509D0B04207D008
:101AE000B84205D0604503D0A04201D0A84204D13D
:101AF00022F070084A6842EA0802DFF89880DFF8AE
:101B00009890DFF898A0984211D058450FD0B04275
:101B10000DD0B8420BD0604509D0A04207D0404557
:101B200005D0484503D0504501D0A84203D122F446
:101B30004076CA6832434E6922F080023243026026
:101B40008A68C2620A688262984209D0A04207D0BD
:101B5000404505D0484503D0504501D0A84201D1A9
:101B600009690163012141610169C90703D0016964
:101B700021F001010161BDE8F08F0000002C01405F
:101B80000004004000080040000C00400034014008
:101B90000050014000400140004401400048014025
:101BA00030B5416EB9B1026891689268C1F3426183
:101BB0000B4B520F9C5CE50003F10804A25CB5FBE3
:101BC000F2F2A0F86A205A5C615CD200B2FBF1F13B
:101BD000A0F8681030BD0121A0F86A10F8E70000F5
:101BE000502B000890F82810090706D501684A68AC
:101BF000836B22F400421A434A6090F82810C90708
:101C000006D001684A68C36A22F400321A434A6067
:101C100090F82810890706D501684A68036B22F4FA
:101C200080321A434A6090F82810490706D50168A7
:101C30004A68436B22F480221A434A6090F82810C5
:101C4000C90606D501688A68C36B22F480521A431C
:101C50008A6090F82810890606D501688A68036CA6
:101C600022F400521A438A6090F82810490611D5D0
:101C700001684A68436C22F480121A434A60416C3E
:101C8000B1F5801F06D101684A68836C22F4C00256
:101C90001A434A6090F82810090606D501684A6878
:101CA000C06C22F4002202434A6070472DE9F843D9
:101CB00000260446C0F89060FEF7BEFD804620680E
:101CC00000684FF0200500076FF07E4713D54346AC
:101CD000002229042046009700F0B4F958B1216889
:101CE00051E8000F20F0800041E80002002AF6D100
:101CF000C4F8885021E020680068400722D5434698
:101D000000224FF480012046009700F09BF9C8B1F3
:101D1000216851E8000F20F4907041E80002002A89
:101D2000F6D12068083050E8001F21F0010140E89A
:101D30000012002AF5D1C4F88C5084F88460032086
:101D4000BDE8F883C4F88850C4F88C5044F86C6F30
:101D5000666026760020F3E710B5026852E8001F9F
:101D600021F4907142E80013002BF6D10E4B02686B
:101D7000083252E8001F194042E80014002CF6D146
:101D8000C16E012908D1016851E8002F22F010022C
:101D900041E80023002BF6D12021C0F88C1000214F
:101DA000C166416710BD0000FEFFFFEF2DE9F04165
:101DB0000446016880682269E3691043626900256E
:101DC0001A431043DFF84CC20A68934B1A4002438F
:101DD0000A6020684168E26821F440511143416083
:101DE0002168A069614501D0226A10438A688B4B43
:101DF0001A4002438A602068C16A626A21F00F01BA
:101E00001143C1628649236886488B420DD1D0F8C0
:101E1000880010F0030006D0012867D0022854D0B3
:101E2000032851D164E001204FE07F498B420BD160
:101E3000D0F8880010F00C0047D0042845D00828BE
:101E400052D00C2840D153E078498B420BD1D0F8C6
:101E5000880010F0300038D0102847D0202843D018
:101E6000302831D144E072498B420BD1D0F8880040
:101E700010F0C00029D0402838D0802834D0C028A5
:101E800022D135E06B498B420ED1D0F8880010F496
:101E900040701AD0B0F5807F28D0B0F5007F23D0F5
:101EA000B0F5407F10D123E063450DD1D0F8880014
:101EB00010F4406009D0B0F5806F17D0B0F5006F16
:101EC00012D0B0F5406F13D010205B4A5B4F002654
:101ED0004FF40041634539D160B102280DD0042888
:101EE0000DD0082831D10EE00220EEE70420ECE707
:101EF0000820EAE7FFF754F803E0114603E0FFF794
:101F000073F801007BD0606A37F810206768B1FB76
:101F1000F2F007EB4703834269D8B0EB073F66D87E
:101F2000002308461946FEF727FA090241EA106124
:101F300002027808101871413A460023FEF71CFA95
:101F40003F4AA0F54071914257D950E0E3694FF6FE
:101F5000EF788B422BD1092849D2DFE800F0050841
:101F60000D48254848480E00FFF71AF801E0FFF732
:101F700029F8010001D142E01146606A37F81000EB
:101F8000B1FBF0F04100606801EB5001B1FBF0F1F2
:101F9000A1F1100040452AD84FF6F07201EA020084
:101FA000C1F34201084328E0FFF71EF8E1E70928E2
:101FB0001DD2DFE800F005080D1C1E1C1C1C0E00C5
:101FC000FEF7EEFF01E0FEF7FDFF010001D116E094
:101FD0001146606A37F81000B1FBF0F1606801EB60
:101FE0005001B1FBF0F0A0F11001414504D90125E9
:101FF00005E0FEF7F9FFE8E780B22168C86001203C
:10200000A4F86A0024F8680F2846E6602661BDE857
:10201000F081000000800040F369FFCFFFF4FF1162
:1020200000380140001002400044004000480040D9
:10203000004C0040005000400024F400382B000801
:10204000FFFC0F002DE9F047994617460D46044660
:102050004FF00008089E33E0701C31D0FEF7ECFB17
:10206000A0EB0900B04218D8BEB12068016849074A
:1020700026D5802D24D0402D22D0C169C94309071F
:102080000DD4082505622046FFF766FEC4F890507F
:1020900084F884800120BDE8F0870320FBE7C06955
:1020A000C04300050CD421684FF40060086220464C
:1020B000FFF752FE2020C4F8900084F88480ECE7FB
:1020C0002068C06935EA000004D00020B842C3D0BF
:1020D0000020E0E70120F9E7FEE70907090E0028E4
:1020E00004DB00F1E02080F80014704700F00F00DE
:1020F00000F1E02080F8141D7047FEF7ABFBFFF7FE
:102100009BFCFFF7FDFBFFF74DFCFFF7E5FB00F045
:1021100011F8FEE701460020842900D0C81C704752
:102120000521B0FBF1F010B500B9012000F0F6FA7E
:10213000002010BD10B500F017FB002010BD3EB50B
:1021400004460D46B0F90800FFF7E4FF02A9CDE907
:102150000001208A2B4682B2D4E9001000F0E8FB8F
:10216000012801D000203EBD02983EBD2DE9F0417E
:10217000184C0F460546E6682068001D00F010FA6E
:1021800038B9206890F82C100120884021698143DB
:102190002161681C07D137B12168BDE8F0410E48C4
:1021A000091D00F036BA20683544B5424560216803
:1021B00005D2A06BBDE8F041091D00F012BA606BBA
:1021C000091D00F00EFAA06A854200D2A562BDE8A2
:1021D000F081000014000020380200202DE9F041B9
:1021E000054600F023FA2E4CA068401CA060206831
:1021F0002C4F10B1606940B32DE02560A068012824
:1022000029D1002606EB860007EB800000F0DBF901
:10221000761C072EF6D323488C3000F0D4F92148E1
:10222000A03000F0D0F91F48B43000F0CCF91D48C0
:10223000C83000F0C8F91B48DC3000F0C4F9194878
:102240008C3060631430A06305E02068E96AC06ADE
:10225000884200D82560606A401C6062E96A0120FB
:10226000226988401043206101EB810007EB800068
:10227000291D00F0CEF900F0F9F9606900280CD0B2
:102280002068E96AC06A884207D207494FF0805047
:102290000860BFF34F8FBFF36F8FBDE8F081000080
:1022A000140000205C01002004ED00E010B504469D
:1022B000006B00F0EFF92046BDE8104000F0EAB9ED
:1022C00010484FF44061420706D0C01D0D4920F070
:1022D0000700411AC1F540610B4A00230144C2E9DD
:1022E00000030839183A21F0070111604B600B60B8
:1022F0000B1AC0E9001393604FF000405360506127
:10230000704700004C02002068000020144E154C5D
:10231000A6F1C8074FF08058DFF84C9012E000BFDC
:1023200000F084F9F068C568281D00F039F9A0684C
:10233000401EA0606068401E606000F097F928466B
:10234000FFF7B4FF60680028EAD138680128F9D99E
:10235000C9F80080BFF34F8FBFF36F8FF2E7000023
:10236000240200201400002004ED00E02DE9F047D5
:102370009A46DDE9098481466FF00303206B03EB85
:1023800082021044089E20F00707780707D05020EB
:1023900080F31188BFF34F8FBFF36F8FFEE70025E7
:1023A00061B1002023180A5C83F834200A5C12B162
:1023B000401C1028F6D384F8435001E084F83450D0
:1023C000072E00D30626E662C4E91165201D00F041
:1023D00005F904F1180000F001F92461C6F10700C5
:1023E0006462A061E56484F850505246494638461C
:1023F00000F0C0F82060B8F1000F01D0C8F800402C
:10240000BDE8F08730B5114900E011460A68824204
:10241000FBD34B685C18844203D140681844486081
:10242000084643681C18944209D1084C183C24689B
:10243000A24209D052681A4442600A6812680260D7
:10244000814200D0086030BD0460F9E768000020D8
:102450000648416B096829B1416BC968C968496878
:10246000816270474FF0FF31FAE70000140000204E
:1024700008484068401C4FF0500080F3118804D099
:10248000BFF34F8FBFF36F8FFEE7BFF34F8FBFF3E5
:102490006F8FFEE7700000202DE9F0410546002710
:1024A00000F096F9324E306808B9FFF709FF7069FD
:1024B00005424ED1C5B3083568070ED005F00700B8
:1024C000C0F108000544680707D0502080F3118848
:1024D000BFF34F8FBFF36F8FFEE72DB37068854258
:1024E00037D82348183001460C6801E020460C46D6
:1024F0006168A94202D221680029F7D131688C4273
:1025000027D007682168016060680837411B1029DF
:102510000FD96019420708D0502080F31188BFF30B
:102520004F8FBFF36F8FFEE713E041606560FFF7E9
:1025300069FF61687068401A7060B268904200D2AA
:10254000B060706901430020C4E90001F068401CDC
:10255000F06000F07FFA780707D0502080F31188F0
:10256000BFF34F8FBFF36F8FFEE73846BDE8F081B2
:102570005000002010B5031F4FF080741C601B1F1B
:1025800021F001011960191F044B0B6014390A6016
:10259000091F6FF0020244380A6010BD7124000860
:1025A000D0E9013201699A60D0E901235A604A6892
:1025B000824201D182684A60002202610868401E9E
:1025C00008600868704700F108014FF0FF32C0E969
:1025D0000112C160016100210160704700210161A9
:1025E000704730B50B685A1C02D000F1080202E0B7
:1025F000026904E02246546825689D42FAD953686E
:102600004B6099608A60516008610168491C0160F3
:1026100030BD42684A6093688B60936859609160EE
:1026200008610168491C016070470000502080F378
:102630001188BFF34F8FBFF36F8F0A494868401C62
:10264000486001280CD10848006810F0FF0F07D03F
:10265000502080F31188BFF34F8FBFF36F8FFEE7D9
:10266000704700007000002004ED00E00849486851
:1026700028B1401E486001D180F311887047502076
:1026800080F31188BFF34F8FBFF36F8FFEE7000019
:102690007000002070B500282AD0164DA0F1080463
:1026A00060686969084207D1502080F31188BFF340
:1026B0004F8FBFF36F8FFEE722683AB1502080F34F
:1026C0001188BFF34F8FBFF36F8FFEE788436060C1
:1026D00000F07EF860686968084468602046FFF78B
:1026E00091FE2869401C2861BDE8704000F0B2B935
:1026F00070BD0000500000204FF0E020002101617B
:1027000081610549C8220968B1FBF2F1491E4161A6
:1027100007210161704700001000002010B5020081
:1027200014D00F48006B38B1502080F31188BFF3EC
:102730004F8FBFF36F8FFEE700F04AF8002110467D
:10274000FFF714FD00F086F9002807D105494FF086
:1027500080500860BFF34F8FBFF36F8F10BD000034
:102760001400002004ED00E01CB515480024CDE95C
:1027700000402346802213A1144800F0D9F8012814
:1027800009D0401C1AD1502080F31188BFF34F8F1D
:10279000BFF36F8FFEE7502080F31188BFF34F8F98
:1027A000BFF36F8F06484FF0FF312C388162012153
:1027B0004161C460BDE81C4000F040B81CBD000091
:1027C0004000002049444C45000000000D23000853
:1027D0000248016B491C016370470000140000208F
:1027E0001448016B11B10121C16170470021C16121
:1027F0000169B1FA81F1C1F11F0101EB81020E49BA
:1028000051F822306BB101EB820101F108034A68F3
:1028100052684A609A4201D152684A60D1680160A8
:102820007047502080F31188BFF34F8FBFF36F8F35
:10283000FEE70000140000205C0100201CB53748B2
:102840000168374A914207D1502080F31188BFF3C5
:102850004F8FBFF36F8FFEE700683149491E8842F2
:1028600007D1502080F31188BFF34F8FBFF36F8FD4
:10287000FEE72C4908780190FF20087008788DF851
:1028800000009DF800009DF8002000F0F00090424C
:1028900007D0502080F31188BFF34F8FBFF36F8FA5
:1028A000FEE79DF80000204C00F05000207007204B
:1028B000A06005E09DF8002052008DF80020401E29
:1028C0009DF800201206F5D4A060032807D0502000
:1028D00080F31188BFF34F8FBFF36F8FFEE74FF484
:1028E0004070A060019808700C482030016841F4E5
:1028F00070010160016841F070410160FFF7FCFE6A
:1029000000206060FDF7DCFC0848016841F04041B0
:102910000160FDF7C1FC00201CBD000000ED00E0DF
:1029200071C20F4100E400E07000002034EF00E0CD
:102930002DE9FF5F8346DDE90E87994616468A46F4
:102940009000FFF7A9FD05001AD05420FFF7A4FD61
:10295000040012D025630021CDE90241CDE90087B2
:102960004B46324651465846FFF700FD2046FFF7DA
:1029700035FC012004B0BDE8F09F2846FFF78AFE31
:102980004FF0FF30F6E700002DE9F0412F4C002614
:10299000206B28B1A069401CA0613046BDE8F081E1
:1029A000E5686D1CE56013D1606B006838B150209C
:1029B00080F31188BFF34F8FBFF36F8FFEE7606B1B
:1029C000A16B6163A063206A401C2062FFF740FD99
:1029D000A06ADFF87C80854209D3606B0068A0B1F3
:1029E000606BC068C7687868854211D2A0622068B1
:1029F000C06A00EB800158F82100012800D90126A7
:102A0000E0690028C9D00126C7E74FF0FF30EDE7A5
:102A1000381DFFF7C5FDB86A18B107F11800FFF7B8
:102A2000BFFDF96A0120226988401043206101EB53
:102A3000810108EB8100391DFFF7EBFDF86A216881
:102A4000C96A8842C9D30126C7E7000014000020E4
:102A50005C0100202DE9F0472C4D00242746286B0F
:102A600038B1FFF7E3FD286B401E2863286B40B1A7
:102A700046E0502080F31188BFF34F8FBFF36F8F74
:102A8000FEE7A968224E0120D1B3A6F1B409804621
:102A90003068E8B1F068C46804F11800FFF780FD01
:102AA000201DFFF77DFDE06A2A6908FA00F1114355
:102AB000296100EB800109EB8100211DFFF7A9FDD1
:102AC000E06A2968C96A8842E2D3C5F81C80DFE75A
:102AD0000CB1FFF7BDFCAC6944B14646FFF754FFAB
:102AE00000B1EE61641EF9D10020A861E86938B137
:102AF0000849012738070860BFF34F8FBFF36F8F76
:102B0000FFF7B4FD3846BDE8F08700001400002050
:102B10001002002004ED00E04FF04070E1EE100ADA
:102B200070470000782B000893050008FEFF0000A6
:102B30000000000080000000010002000400060008
:102B400008000A000C001000200040008000000176
:102B5000010101030701000008040204080101014A
:102B6000000000000000000001020304060708093D
:102B700000000000010203044C45445F5461736B84
:102B800000000000A42B0008000000207C000000D2
:102B900014020008202C00087C00002034140000DF
:102BA00030020008000000001000000001000000DA
:102BB000000000000024F4000000000000000000FD
:102BC0000000000000000000000000000000000005
:102BD00000000000000000000000000000000000F5
:102BE00000000000000000000000000000000000E5
:102BF00000000000000000000000000000000000D5
:102C000000000000000000000000000000000000C4
:102C10000000000000000000AAAAAAAA000000000C
:04000005080001D915
:00000001FF
